{
	"data": {
		"bytecode": {
			"linkReferences": {},
			"object": "60c060405234801561000f575f80fd5b50604051610a98380380610a988339818101604052810190610031919061007f565b81608081815250508060a0818152505050506100bd565b5f80fd5b5f819050919050565b61005e8161004c565b8114610068575f80fd5b50565b5f8151905061007981610055565b92915050565b5f806040838503121561009557610094610048565b5b5f6100a28582860161006b565b92505060206100b38582860161006b565b9150509250929050565b60805160a05161099e6100fa5f395f8181610380015281816104db015261050401525f81816101e50152818161021001526103f5015261099e5ff3fe60806040526004361061007e575f3560e01c8063869682591161004d578063869682591461012d578063c8ddec1b14610157578063e8b1298f14610181578063f061293a146101a95761008f565b80633d922f9014610093578063449533131461009d5780635f0073d0146100c75780636baf38ca146100f15761008f565b3661008f5761008d33346101d3565b005b5f80fd5b61009b610372565b005b3480156100a8575f80fd5b506100b161037e565b6040516100be9190610740565b60405180910390f35b3480156100d2575f80fd5b506100db6103a2565b6040516100e89190610740565b60405180910390f35b3480156100fc575f80fd5b50610117600480360381019061011291906107b7565b6103a7565b6040516101249190610740565b60405180910390f35b348015610138575f80fd5b506101416103ed565b60405161014e9190610740565b60405180910390f35b348015610162575f80fd5b5061016b6103f3565b6040516101789190610740565b60405180910390f35b34801561018c575f80fd5b506101a760048036038101906101a2919061080c565b610417565b005b3480156101b4575f80fd5b506101bd610671565b6040516101ca9190610740565b60405180910390f35b5f815f546101e19190610864565b90507f000000000000000000000000000000000000000000000000000000000000000081111561027657805f547f00000000000000000000000000000000000000000000000000000000000000006102399190610897565b6040517f6492294500000000000000000000000000000000000000000000000000000000815260040161026d9291906108ca565b60405180910390fd5b8160035f8573ffffffffffffffffffffffffffffffffffffffff1673ffffffffffffffffffffffffffffffffffffffff1681526020019081526020015f205f8282546102c29190610864565b92505081905550805f8190555060015f81548092919060010191905055508273ffffffffffffffffffffffffffffffffffffffff167f610daa02a124f86e54502578bf493432a3834b1138f1456e59e0e807357b63958360035f8773ffffffffffffffffffffffffffffffffffffffff1673ffffffffffffffffffffffffffffffffffffffff1681526020019081526020015f20546040516103659291906108ca565b60405180910390a2505050565b61037c33346101d3565b565b7f000000000000000000000000000000000000000000000000000000000000000081565b5f5481565b5f60035f8373ffffffffffffffffffffffffffffffffffffffff1673ffffffffffffffffffffffffffffffffffffffff1681526020019081526020015f20549050919050565b60015481565b7f000000000000000000000000000000000000000000000000000000000000000081565b805f8103610451576040517f85ea51af00000000000000000000000000000000000000000000000000000000815260040160405180910390fd5b5f60035f3373ffffffffffffffffffffffffffffffffffffffff1673ffffffffffffffffffffffffffffffffffffffff1681526020019081526020015f20549050808311156104d95780836040517f9d8b89ca0000000000000000000000000000000000000000000000000000000081526004016104d09291906108ca565b60405180910390fd5b7f000000000000000000000000000000000000000000000000000000000000000083111561056057827f00000000000000000000000000000000000000000000000000000000000000006040517fd021cb2f0000000000000000000000000000000000000000000000000000000081526004016105579291906108ca565b60405180910390fd5b828161056c9190610897565b60035f3373ffffffffffffffffffffffffffffffffffffffff1673ffffffffffffffffffffffffffffffffffffffff1681526020019081526020015f2081905550825f808282546105bd9190610897565b9250508190555060025f81548092919060010191905055506105df3384610677565b3373ffffffffffffffffffffffffffffffffffffffff167f513a4e63a7de56cc9b7c15d2467c0ad91c82df2b439cc2c4992f0b3b4b997d148460035f3373ffffffffffffffffffffffffffffffffffffffff1673ffffffffffffffffffffffffffffffffffffffff1681526020019081526020015f20546040516106649291906108ca565b60405180910390a2505050565b60025481565b5f8273ffffffffffffffffffffffffffffffffffffffff168260405161069c9061091e565b5f6040518083038185875af1925050503d805f81146106d6576040519150601f19603f3d011682016040523d82523d5f602084013e6106db565b606091505b50509050806107235782826040517fc66cee3800000000000000000000000000000000000000000000000000000000815260040161071a929190610941565b60405180910390fd5b505050565b5f819050919050565b61073a81610728565b82525050565b5f6020820190506107535f830184610731565b92915050565b5f80fd5b5f73ffffffffffffffffffffffffffffffffffffffff82169050919050565b5f6107868261075d565b9050919050565b6107968161077c565b81146107a0575f80fd5b50565b5f813590506107b18161078d565b92915050565b5f602082840312156107cc576107cb610759565b5b5f6107d9848285016107a3565b91505092915050565b6107eb81610728565b81146107f5575f80fd5b50565b5f81359050610806816107e2565b92915050565b5f6020828403121561082157610820610759565b5b5f61082e848285016107f8565b91505092915050565b7f4e487b71000000000000000000000000000000000000000000000000000000005f52601160045260245ffd5b5f61086e82610728565b915061087983610728565b925082820190508082111561089157610890610837565b5b92915050565b5f6108a182610728565b91506108ac83610728565b92508282039050818111156108c4576108c3610837565b5b92915050565b5f6040820190506108dd5f830185610731565b6108ea6020830184610731565b9392505050565b5f81905092915050565b50565b5f6109095f836108f1565b9150610914826108fb565b5f82019050919050565b5f610928826108fe565b9150819050919050565b61093b8161077c565b82525050565b5f6040820190506109545f830185610932565b6109616020830184610731565b939250505056fea264697066735822122066ce9c0a4c69e032339ef5c76a51d2ee17388435c3c0973272ef2f0befccb71764736f6c634300081a0033",
			"opcodes": "PUSH1 0xC0 PUSH1 0x40 MSTORE CALLVALUE DUP1 ISZERO PUSH2 0xF JUMPI PUSH0 DUP1 REVERT JUMPDEST POP PUSH1 0x40 MLOAD PUSH2 0xA98 CODESIZE SUB DUP1 PUSH2 0xA98 DUP4 CODECOPY DUP2 DUP2 ADD PUSH1 0x40 MSTORE DUP2 ADD SWAP1 PUSH2 0x31 SWAP2 SWAP1 PUSH2 0x7F JUMP JUMPDEST DUP2 PUSH1 0x80 DUP2 DUP2 MSTORE POP POP DUP1 PUSH1 0xA0 DUP2 DUP2 MSTORE POP POP POP POP PUSH2 0xBD JUMP JUMPDEST PUSH0 DUP1 REVERT JUMPDEST PUSH0 DUP2 SWAP1 POP SWAP2 SWAP1 POP JUMP JUMPDEST PUSH2 0x5E DUP2 PUSH2 0x4C JUMP JUMPDEST DUP2 EQ PUSH2 0x68 JUMPI PUSH0 DUP1 REVERT JUMPDEST POP JUMP JUMPDEST PUSH0 DUP2 MLOAD SWAP1 POP PUSH2 0x79 DUP2 PUSH2 0x55 JUMP JUMPDEST SWAP3 SWAP2 POP POP JUMP JUMPDEST PUSH0 DUP1 PUSH1 0x40 DUP4 DUP6 SUB SLT ISZERO PUSH2 0x95 JUMPI PUSH2 0x94 PUSH2 0x48 JUMP JUMPDEST JUMPDEST PUSH0 PUSH2 0xA2 DUP6 DUP3 DUP7 ADD PUSH2 0x6B JUMP JUMPDEST SWAP3 POP POP PUSH1 0x20 PUSH2 0xB3 DUP6 DUP3 DUP7 ADD PUSH2 0x6B JUMP JUMPDEST SWAP2 POP POP SWAP3 POP SWAP3 SWAP1 POP JUMP JUMPDEST PUSH1 0x80 MLOAD PUSH1 0xA0 MLOAD PUSH2 0x99E PUSH2 0xFA PUSH0 CODECOPY PUSH0 DUP2 DUP2 PUSH2 0x380 ADD MSTORE DUP2 DUP2 PUSH2 0x4DB ADD MSTORE PUSH2 0x504 ADD MSTORE PUSH0 DUP2 DUP2 PUSH2 0x1E5 ADD MSTORE DUP2 DUP2 PUSH2 0x210 ADD MSTORE PUSH2 0x3F5 ADD MSTORE PUSH2 0x99E PUSH0 RETURN INVALID PUSH1 0x80 PUSH1 0x40 MSTORE PUSH1 0x4 CALLDATASIZE LT PUSH2 0x7E JUMPI PUSH0 CALLDATALOAD PUSH1 0xE0 SHR DUP1 PUSH4 0x86968259 GT PUSH2 0x4D JUMPI DUP1 PUSH4 0x86968259 EQ PUSH2 0x12D JUMPI DUP1 PUSH4 0xC8DDEC1B EQ PUSH2 0x157 JUMPI DUP1 PUSH4 0xE8B1298F EQ PUSH2 0x181 JUMPI DUP1 PUSH4 0xF061293A EQ PUSH2 0x1A9 JUMPI PUSH2 0x8F JUMP JUMPDEST DUP1 PUSH4 0x3D922F90 EQ PUSH2 0x93 JUMPI DUP1 PUSH4 0x44953313 EQ PUSH2 0x9D JUMPI DUP1 PUSH4 0x5F0073D0 EQ PUSH2 0xC7 JUMPI DUP1 PUSH4 0x6BAF38CA EQ PUSH2 0xF1 JUMPI PUSH2 0x8F JUMP JUMPDEST CALLDATASIZE PUSH2 0x8F JUMPI PUSH2 0x8D CALLER CALLVALUE PUSH2 0x1D3 JUMP JUMPDEST STOP JUMPDEST PUSH0 DUP1 REVERT JUMPDEST PUSH2 0x9B PUSH2 0x372 JUMP JUMPDEST STOP JUMPDEST CALLVALUE DUP1 ISZERO PUSH2 0xA8 JUMPI PUSH0 DUP1 REVERT JUMPDEST POP PUSH2 0xB1 PUSH2 0x37E JUMP JUMPDEST PUSH1 0x40 MLOAD PUSH2 0xBE SWAP2 SWAP1 PUSH2 0x740 JUMP JUMPDEST PUSH1 0x40 MLOAD DUP1 SWAP2 SUB SWAP1 RETURN JUMPDEST CALLVALUE DUP1 ISZERO PUSH2 0xD2 JUMPI PUSH0 DUP1 REVERT JUMPDEST POP PUSH2 0xDB PUSH2 0x3A2 JUMP JUMPDEST PUSH1 0x40 MLOAD PUSH2 0xE8 SWAP2 SWAP1 PUSH2 0x740 JUMP JUMPDEST PUSH1 0x40 MLOAD DUP1 SWAP2 SUB SWAP1 RETURN JUMPDEST CALLVALUE DUP1 ISZERO PUSH2 0xFC JUMPI PUSH0 DUP1 REVERT JUMPDEST POP PUSH2 0x117 PUSH1 0x4 DUP1 CALLDATASIZE SUB DUP2 ADD SWAP1 PUSH2 0x112 SWAP2 SWAP1 PUSH2 0x7B7 JUMP JUMPDEST PUSH2 0x3A7 JUMP JUMPDEST PUSH1 0x40 MLOAD PUSH2 0x124 SWAP2 SWAP1 PUSH2 0x740 JUMP JUMPDEST PUSH1 0x40 MLOAD DUP1 SWAP2 SUB SWAP1 RETURN JUMPDEST CALLVALUE DUP1 ISZERO PUSH2 0x138 JUMPI PUSH0 DUP1 REVERT JUMPDEST POP PUSH2 0x141 PUSH2 0x3ED JUMP JUMPDEST PUSH1 0x40 MLOAD PUSH2 0x14E SWAP2 SWAP1 PUSH2 0x740 JUMP JUMPDEST PUSH1 0x40 MLOAD DUP1 SWAP2 SUB SWAP1 RETURN JUMPDEST CALLVALUE DUP1 ISZERO PUSH2 0x162 JUMPI PUSH0 DUP1 REVERT JUMPDEST POP PUSH2 0x16B PUSH2 0x3F3 JUMP JUMPDEST PUSH1 0x40 MLOAD PUSH2 0x178 SWAP2 SWAP1 PUSH2 0x740 JUMP JUMPDEST PUSH1 0x40 MLOAD DUP1 SWAP2 SUB SWAP1 RETURN JUMPDEST CALLVALUE DUP1 ISZERO PUSH2 0x18C JUMPI PUSH0 DUP1 REVERT JUMPDEST POP PUSH2 0x1A7 PUSH1 0x4 DUP1 CALLDATASIZE SUB DUP2 ADD SWAP1 PUSH2 0x1A2 SWAP2 SWAP1 PUSH2 0x80C JUMP JUMPDEST PUSH2 0x417 JUMP JUMPDEST STOP JUMPDEST CALLVALUE DUP1 ISZERO PUSH2 0x1B4 JUMPI PUSH0 DUP1 REVERT JUMPDEST POP PUSH2 0x1BD PUSH2 0x671 JUMP JUMPDEST PUSH1 0x40 MLOAD PUSH2 0x1CA SWAP2 SWAP1 PUSH2 0x740 JUMP JUMPDEST PUSH1 0x40 MLOAD DUP1 SWAP2 SUB SWAP1 RETURN JUMPDEST PUSH0 DUP2 PUSH0 SLOAD PUSH2 0x1E1 SWAP2 SWAP1 PUSH2 0x864 JUMP JUMPDEST SWAP1 POP PUSH32 0x0 DUP2 GT ISZERO PUSH2 0x276 JUMPI DUP1 PUSH0 SLOAD PUSH32 0x0 PUSH2 0x239 SWAP2 SWAP1 PUSH2 0x897 JUMP JUMPDEST PUSH1 0x40 MLOAD PUSH32 0x6492294500000000000000000000000000000000000000000000000000000000 DUP2 MSTORE PUSH1 0x4 ADD PUSH2 0x26D SWAP3 SWAP2 SWAP1 PUSH2 0x8CA JUMP JUMPDEST PUSH1 0x40 MLOAD DUP1 SWAP2 SUB SWAP1 REVERT JUMPDEST DUP2 PUSH1 0x3 PUSH0 DUP6 PUSH20 0xFFFFFFFFFFFFFFFFFFFFFFFFFFFFFFFFFFFFFFFF AND PUSH20 0xFFFFFFFFFFFFFFFFFFFFFFFFFFFFFFFFFFFFFFFF AND DUP2 MSTORE PUSH1 0x20 ADD SWAP1 DUP2 MSTORE PUSH1 0x20 ADD PUSH0 KECCAK256 PUSH0 DUP3 DUP3 SLOAD PUSH2 0x2C2 SWAP2 SWAP1 PUSH2 0x864 JUMP JUMPDEST SWAP3 POP POP DUP2 SWAP1 SSTORE POP DUP1 PUSH0 DUP2 SWAP1 SSTORE POP PUSH1 0x1 PUSH0 DUP2 SLOAD DUP1 SWAP3 SWAP2 SWAP1 PUSH1 0x1 ADD SWAP2 SWAP1 POP SSTORE POP DUP3 PUSH20 0xFFFFFFFFFFFFFFFFFFFFFFFFFFFFFFFFFFFFFFFF AND PUSH32 0x610DAA02A124F86E54502578BF493432A3834B1138F1456E59E0E807357B6395 DUP4 PUSH1 0x3 PUSH0 DUP8 PUSH20 0xFFFFFFFFFFFFFFFFFFFFFFFFFFFFFFFFFFFFFFFF AND PUSH20 0xFFFFFFFFFFFFFFFFFFFFFFFFFFFFFFFFFFFFFFFF AND DUP2 MSTORE PUSH1 0x20 ADD SWAP1 DUP2 MSTORE PUSH1 0x20 ADD PUSH0 KECCAK256 SLOAD PUSH1 0x40 MLOAD PUSH2 0x365 SWAP3 SWAP2 SWAP1 PUSH2 0x8CA JUMP JUMPDEST PUSH1 0x40 MLOAD DUP1 SWAP2 SUB SWAP1 LOG2 POP POP POP JUMP JUMPDEST PUSH2 0x37C CALLER CALLVALUE PUSH2 0x1D3 JUMP JUMPDEST JUMP JUMPDEST PUSH32 0x0 DUP2 JUMP JUMPDEST PUSH0 SLOAD DUP2 JUMP JUMPDEST PUSH0 PUSH1 0x3 PUSH0 DUP4 PUSH20 0xFFFFFFFFFFFFFFFFFFFFFFFFFFFFFFFFFFFFFFFF AND PUSH20 0xFFFFFFFFFFFFFFFFFFFFFFFFFFFFFFFFFFFFFFFF AND DUP2 MSTORE PUSH1 0x20 ADD SWAP1 DUP2 MSTORE PUSH1 0x20 ADD PUSH0 KECCAK256 SLOAD SWAP1 POP SWAP2 SWAP1 POP JUMP JUMPDEST PUSH1 0x1 SLOAD DUP2 JUMP JUMPDEST PUSH32 0x0 DUP2 JUMP JUMPDEST DUP1 PUSH0 DUP2 SUB PUSH2 0x451 JUMPI PUSH1 0x40 MLOAD PUSH32 0x85EA51AF00000000000000000000000000000000000000000000000000000000 DUP2 MSTORE PUSH1 0x4 ADD PUSH1 0x40 MLOAD DUP1 SWAP2 SUB SWAP1 REVERT JUMPDEST PUSH0 PUSH1 0x3 PUSH0 CALLER PUSH20 0xFFFFFFFFFFFFFFFFFFFFFFFFFFFFFFFFFFFFFFFF AND PUSH20 0xFFFFFFFFFFFFFFFFFFFFFFFFFFFFFFFFFFFFFFFF AND DUP2 MSTORE PUSH1 0x20 ADD SWAP1 DUP2 MSTORE PUSH1 0x20 ADD PUSH0 KECCAK256 SLOAD SWAP1 POP DUP1 DUP4 GT ISZERO PUSH2 0x4D9 JUMPI DUP1 DUP4 PUSH1 0x40 MLOAD PUSH32 0x9D8B89CA00000000000000000000000000000000000000000000000000000000 DUP2 MSTORE PUSH1 0x4 ADD PUSH2 0x4D0 SWAP3 SWAP2 SWAP1 PUSH2 0x8CA JUMP JUMPDEST PUSH1 0x40 MLOAD DUP1 SWAP2 SUB SWAP1 REVERT JUMPDEST PUSH32 0x0 DUP4 GT ISZERO PUSH2 0x560 JUMPI DUP3 PUSH32 0x0 PUSH1 0x40 MLOAD PUSH32 0xD021CB2F00000000000000000000000000000000000000000000000000000000 DUP2 MSTORE PUSH1 0x4 ADD PUSH2 0x557 SWAP3 SWAP2 SWAP1 PUSH2 0x8CA JUMP JUMPDEST PUSH1 0x40 MLOAD DUP1 SWAP2 SUB SWAP1 REVERT JUMPDEST DUP3 DUP2 PUSH2 0x56C SWAP2 SWAP1 PUSH2 0x897 JUMP JUMPDEST PUSH1 0x3 PUSH0 CALLER PUSH20 0xFFFFFFFFFFFFFFFFFFFFFFFFFFFFFFFFFFFFFFFF AND PUSH20 0xFFFFFFFFFFFFFFFFFFFFFFFFFFFFFFFFFFFFFFFF AND DUP2 MSTORE PUSH1 0x20 ADD SWAP1 DUP2 MSTORE PUSH1 0x20 ADD PUSH0 KECCAK256 DUP2 SWAP1 SSTORE POP DUP3 PUSH0 DUP1 DUP3 DUP3 SLOAD PUSH2 0x5BD SWAP2 SWAP1 PUSH2 0x897 JUMP JUMPDEST SWAP3 POP POP DUP2 SWAP1 SSTORE POP PUSH1 0x2 PUSH0 DUP2 SLOAD DUP1 SWAP3 SWAP2 SWAP1 PUSH1 0x1 ADD SWAP2 SWAP1 POP SSTORE POP PUSH2 0x5DF CALLER DUP5 PUSH2 0x677 JUMP JUMPDEST CALLER PUSH20 0xFFFFFFFFFFFFFFFFFFFFFFFFFFFFFFFFFFFFFFFF AND PUSH32 0x513A4E63A7DE56CC9B7C15D2467C0AD91C82DF2B439CC2C4992F0B3B4B997D14 DUP5 PUSH1 0x3 PUSH0 CALLER PUSH20 0xFFFFFFFFFFFFFFFFFFFFFFFFFFFFFFFFFFFFFFFF AND PUSH20 0xFFFFFFFFFFFFFFFFFFFFFFFFFFFFFFFFFFFFFFFF AND DUP2 MSTORE PUSH1 0x20 ADD SWAP1 DUP2 MSTORE PUSH1 0x20 ADD PUSH0 KECCAK256 SLOAD PUSH1 0x40 MLOAD PUSH2 0x664 SWAP3 SWAP2 SWAP1 PUSH2 0x8CA JUMP JUMPDEST PUSH1 0x40 MLOAD DUP1 SWAP2 SUB SWAP1 LOG2 POP POP POP JUMP JUMPDEST PUSH1 0x2 SLOAD DUP2 JUMP JUMPDEST PUSH0 DUP3 PUSH20 0xFFFFFFFFFFFFFFFFFFFFFFFFFFFFFFFFFFFFFFFF AND DUP3 PUSH1 0x40 MLOAD PUSH2 0x69C SWAP1 PUSH2 0x91E JUMP JUMPDEST PUSH0 PUSH1 0x40 MLOAD DUP1 DUP4 SUB DUP2 DUP6 DUP8 GAS CALL SWAP3 POP POP POP RETURNDATASIZE DUP1 PUSH0 DUP2 EQ PUSH2 0x6D6 JUMPI PUSH1 0x40 MLOAD SWAP2 POP PUSH1 0x1F NOT PUSH1 0x3F RETURNDATASIZE ADD AND DUP3 ADD PUSH1 0x40 MSTORE RETURNDATASIZE DUP3 MSTORE RETURNDATASIZE PUSH0 PUSH1 0x20 DUP5 ADD RETURNDATACOPY PUSH2 0x6DB JUMP JUMPDEST PUSH1 0x60 SWAP2 POP JUMPDEST POP POP SWAP1 POP DUP1 PUSH2 0x723 JUMPI DUP3 DUP3 PUSH1 0x40 MLOAD PUSH32 0xC66CEE3800000000000000000000000000000000000000000000000000000000 DUP2 MSTORE PUSH1 0x4 ADD PUSH2 0x71A SWAP3 SWAP2 SWAP1 PUSH2 0x941 JUMP JUMPDEST PUSH1 0x40 MLOAD DUP1 SWAP2 SUB SWAP1 REVERT JUMPDEST POP POP POP JUMP JUMPDEST PUSH0 DUP2 SWAP1 POP SWAP2 SWAP1 POP JUMP JUMPDEST PUSH2 0x73A DUP2 PUSH2 0x728 JUMP JUMPDEST DUP3 MSTORE POP POP JUMP JUMPDEST PUSH0 PUSH1 0x20 DUP3 ADD SWAP1 POP PUSH2 0x753 PUSH0 DUP4 ADD DUP5 PUSH2 0x731 JUMP JUMPDEST SWAP3 SWAP2 POP POP JUMP JUMPDEST PUSH0 DUP1 REVERT JUMPDEST PUSH0 PUSH20 0xFFFFFFFFFFFFFFFFFFFFFFFFFFFFFFFFFFFFFFFF DUP3 AND SWAP1 POP SWAP2 SWAP1 POP JUMP JUMPDEST PUSH0 PUSH2 0x786 DUP3 PUSH2 0x75D JUMP JUMPDEST SWAP1 POP SWAP2 SWAP1 POP JUMP JUMPDEST PUSH2 0x796 DUP2 PUSH2 0x77C JUMP JUMPDEST DUP2 EQ PUSH2 0x7A0 JUMPI PUSH0 DUP1 REVERT JUMPDEST POP JUMP JUMPDEST PUSH0 DUP2 CALLDATALOAD SWAP1 POP PUSH2 0x7B1 DUP2 PUSH2 0x78D JUMP JUMPDEST SWAP3 SWAP2 POP POP JUMP JUMPDEST PUSH0 PUSH1 0x20 DUP3 DUP5 SUB SLT ISZERO PUSH2 0x7CC JUMPI PUSH2 0x7CB PUSH2 0x759 JUMP JUMPDEST JUMPDEST PUSH0 PUSH2 0x7D9 DUP5 DUP3 DUP6 ADD PUSH2 0x7A3 JUMP JUMPDEST SWAP2 POP POP SWAP3 SWAP2 POP POP JUMP JUMPDEST PUSH2 0x7EB DUP2 PUSH2 0x728 JUMP JUMPDEST DUP2 EQ PUSH2 0x7F5 JUMPI PUSH0 DUP1 REVERT JUMPDEST POP JUMP JUMPDEST PUSH0 DUP2 CALLDATALOAD SWAP1 POP PUSH2 0x806 DUP2 PUSH2 0x7E2 JUMP JUMPDEST SWAP3 SWAP2 POP POP JUMP JUMPDEST PUSH0 PUSH1 0x20 DUP3 DUP5 SUB SLT ISZERO PUSH2 0x821 JUMPI PUSH2 0x820 PUSH2 0x759 JUMP JUMPDEST JUMPDEST PUSH0 PUSH2 0x82E DUP5 DUP3 DUP6 ADD PUSH2 0x7F8 JUMP JUMPDEST SWAP2 POP POP SWAP3 SWAP2 POP POP JUMP JUMPDEST PUSH32 0x4E487B7100000000000000000000000000000000000000000000000000000000 PUSH0 MSTORE PUSH1 0x11 PUSH1 0x4 MSTORE PUSH1 0x24 PUSH0 REVERT JUMPDEST PUSH0 PUSH2 0x86E DUP3 PUSH2 0x728 JUMP JUMPDEST SWAP2 POP PUSH2 0x879 DUP4 PUSH2 0x728 JUMP JUMPDEST SWAP3 POP DUP3 DUP3 ADD SWAP1 POP DUP1 DUP3 GT ISZERO PUSH2 0x891 JUMPI PUSH2 0x890 PUSH2 0x837 JUMP JUMPDEST JUMPDEST SWAP3 SWAP2 POP POP JUMP JUMPDEST PUSH0 PUSH2 0x8A1 DUP3 PUSH2 0x728 JUMP JUMPDEST SWAP2 POP PUSH2 0x8AC DUP4 PUSH2 0x728 JUMP JUMPDEST SWAP3 POP DUP3 DUP3 SUB SWAP1 POP DUP2 DUP2 GT ISZERO PUSH2 0x8C4 JUMPI PUSH2 0x8C3 PUSH2 0x837 JUMP JUMPDEST JUMPDEST SWAP3 SWAP2 POP POP JUMP JUMPDEST PUSH0 PUSH1 0x40 DUP3 ADD SWAP1 POP PUSH2 0x8DD PUSH0 DUP4 ADD DUP6 PUSH2 0x731 JUMP JUMPDEST PUSH2 0x8EA PUSH1 0x20 DUP4 ADD DUP5 PUSH2 0x731 JUMP JUMPDEST SWAP4 SWAP3 POP POP POP JUMP JUMPDEST PUSH0 DUP2 SWAP1 POP SWAP3 SWAP2 POP POP JUMP JUMPDEST POP JUMP JUMPDEST PUSH0 PUSH2 0x909 PUSH0 DUP4 PUSH2 0x8F1 JUMP JUMPDEST SWAP2 POP PUSH2 0x914 DUP3 PUSH2 0x8FB JUMP JUMPDEST PUSH0 DUP3 ADD SWAP1 POP SWAP2 SWAP1 POP JUMP JUMPDEST PUSH0 PUSH2 0x928 DUP3 PUSH2 0x8FE JUMP JUMPDEST SWAP2 POP DUP2 SWAP1 POP SWAP2 SWAP1 POP JUMP JUMPDEST PUSH2 0x93B DUP2 PUSH2 0x77C JUMP JUMPDEST DUP3 MSTORE POP POP JUMP JUMPDEST PUSH0 PUSH1 0x40 DUP3 ADD SWAP1 POP PUSH2 0x954 PUSH0 DUP4 ADD DUP6 PUSH2 0x932 JUMP JUMPDEST PUSH2 0x961 PUSH1 0x20 DUP4 ADD DUP5 PUSH2 0x731 JUMP JUMPDEST SWAP4 SWAP3 POP POP POP JUMP INVALID LOG2 PUSH5 0x6970667358 0x22 SLT KECCAK256 PUSH7 0xCE9C0A4C69E032 CALLER SWAP15 CREATE2 0xC7 PUSH11 0x51D2EE17388435C3C09732 PUSH19 0xEF2F0BEFCCB71764736F6C634300081A003300 "
		},
		"gasEstimates": {
			"creation": {
				"codeDepositCost": "492400",
				"executionCost": "infinite",
				"totalCost": "infinite"
			},
			"external": {
				"contadorDepositos()": "2425",
				"contadorRetiros()": "2491",
				"depositar()": "infinite",
				"limiteBanco()": "infinite",
				"limiteRetiro()": "infinite",
				"retirar(uint256)": "infinite",
				"saldoDe(address)": "2896",
				"totalDepositado()": "2469"
			},
			"internal": {
				"_depositar(address,uint256)": "infinite",
				"_transferenciaSegura(address,uint256)": "infinite"
			}
		},
		"methodIdentifiers": {
			"contadorDepositos()": "86968259",
			"contadorRetiros()": "f061293a",
			"depositar()": "3d922f90",
			"limiteBanco()": "c8ddec1b",
			"limiteRetiro()": "44953313",
			"retirar(uint256)": "e8b1298f",
			"saldoDe(address)": "6baf38ca",
			"totalDepositado()": "5f0073d0"
		}
	},
	"abi": [
		{
			"inputs": [
				{
					"internalType": "uint256",
					"name": "_limiteBanco",
					"type": "uint256"
				},
				{
					"internalType": "uint256",
					"name": "_limiteRetiro",
					"type": "uint256"
				}
			],
			"stateMutability": "nonpayable",
			"type": "constructor"
		},
		{
			"inputs": [
				{
					"internalType": "uint256",
					"name": "intentado",
					"type": "uint256"
				},
				{
					"internalType": "uint256",
					"name": "disponible",
					"type": "uint256"
				}
			],
			"name": "LimiteBancoExcedido",
			"type": "error"
		},
		{
			"inputs": [],
			"name": "MontoCero",
			"type": "error"
		},
		{
			"inputs": [
				{
					"internalType": "uint256",
					"name": "solicitado",
					"type": "uint256"
				},
				{
					"internalType": "uint256",
					"name": "limite",
					"type": "uint256"
				}
			],
			"name": "RetiroExcedeLimite",
			"type": "error"
		},
		{
			"inputs": [
				{
					"internalType": "uint256",
					"name": "disponible",
					"type": "uint256"
				},
				{
					"internalType": "uint256",
					"name": "solicitado",
					"type": "uint256"
				}
			],
			"name": "SaldoInsuficiente",
			"type": "error"
		},
		{
			"inputs": [
				{
					"internalType": "address",
					"name": "destino",
					"type": "address"
				},
				{
					"internalType": "uint256",
					"name": "monto",
					"type": "uint256"
				}
			],
			"name": "TransferenciaFallida",
			"type": "error"
		},
		{
			"anonymous": false,
			"inputs": [
				{
					"indexed": true,
					"internalType": "address",
					"name": "usuario",
					"type": "address"
				},
				{
					"indexed": false,
					"internalType": "uint256",
					"name": "monto",
					"type": "uint256"
				},
				{
					"indexed": false,
					"internalType": "uint256",
					"name": "nuevoSaldo",
					"type": "uint256"
				}
			],
			"name": "Deposito",
			"type": "event"
		},
		{
			"anonymous": false,
			"inputs": [
				{
					"indexed": true,
					"internalType": "address",
					"name": "usuario",
					"type": "address"
				},
				{
					"indexed": false,
					"internalType": "uint256",
					"name": "monto",
					"type": "uint256"
				},
				{
					"indexed": false,
					"internalType": "uint256",
					"name": "nuevoSaldo",
					"type": "uint256"
				}
			],
			"name": "Retiro",
			"type": "event"
		},
		{
			"inputs": [],
			"name": "contadorDepositos",
			"outputs": [
				{
					"internalType": "uint256",
					"name": "",
					"type": "uint256"
				}
			],
			"stateMutability": "view",
			"type": "function"
		},
		{
			"inputs": [],
			"name": "contadorRetiros",
			"outputs": [
				{
					"internalType": "uint256",
					"name": "",
					"type": "uint256"
				}
			],
			"stateMutability": "view",
			"type": "function"
		},
		{
			"inputs": [],
			"name": "depositar",
			"outputs": [],
			"stateMutability": "payable",
			"type": "function"
		},
		{
			"inputs": [],
			"name": "limiteBanco",
			"outputs": [
				{
					"internalType": "uint256",
					"name": "",
					"type": "uint256"
				}
			],
			"stateMutability": "view",
			"type": "function"
		},
		{
			"inputs": [],
			"name": "limiteRetiro",
			"outputs": [
				{
					"internalType": "uint256",
					"name": "",
					"type": "uint256"
				}
			],
			"stateMutability": "view",
			"type": "function"
		},
		{
			"inputs": [
				{
					"internalType": "uint256",
					"name": "monto",
					"type": "uint256"
				}
			],
			"name": "retirar",
			"outputs": [],
			"stateMutability": "nonpayable",
			"type": "function"
		},
		{
			"inputs": [
				{
					"internalType": "address",
					"name": "usuario",
					"type": "address"
				}
			],
			"name": "saldoDe",
			"outputs": [
				{
					"internalType": "uint256",
					"name": "",
					"type": "uint256"
				}
			],
			"stateMutability": "view",
			"type": "function"
		},
		{
			"inputs": [],
			"name": "totalDepositado",
			"outputs": [
				{
					"internalType": "uint256",
					"name": "",
					"type": "uint256"
				}
			],
			"stateMutability": "view",
			"type": "function"
		},
		{
			"stateMutability": "payable",
			"type": "receive"
		}
	]
}