{
	"contracts/kipu-bank.sol": {
		"KipuBank": {
			"abi": [
				{
					"inputs": [
						{
							"internalType": "uint256",
							"name": "_limiteBanco",
							"type": "uint256"
						},
						{
							"internalType": "uint256",
							"name": "_limiteRetiro",
							"type": "uint256"
						}
					],
					"stateMutability": "nonpayable",
					"type": "constructor"
				},
				{
					"inputs": [
						{
							"internalType": "uint256",
							"name": "intentado",
							"type": "uint256"
						},
						{
							"internalType": "uint256",
							"name": "disponible",
							"type": "uint256"
						}
					],
					"name": "LimiteBancoExcedido",
					"type": "error"
				},
				{
					"inputs": [],
					"name": "MontoCero",
					"type": "error"
				},
				{
					"inputs": [
						{
							"internalType": "uint256",
							"name": "solicitado",
							"type": "uint256"
						},
						{
							"internalType": "uint256",
							"name": "limite",
							"type": "uint256"
						}
					],
					"name": "RetiroExcedeLimite",
					"type": "error"
				},
				{
					"inputs": [
						{
							"internalType": "uint256",
							"name": "disponible",
							"type": "uint256"
						},
						{
							"internalType": "uint256",
							"name": "solicitado",
							"type": "uint256"
						}
					],
					"name": "SaldoInsuficiente",
					"type": "error"
				},
				{
					"inputs": [
						{
							"internalType": "address",
							"name": "destino",
							"type": "address"
						},
						{
							"internalType": "uint256",
							"name": "monto",
							"type": "uint256"
						}
					],
					"name": "TransferenciaFallida",
					"type": "error"
				},
				{
					"anonymous": false,
					"inputs": [
						{
							"indexed": true,
							"internalType": "address",
							"name": "usuario",
							"type": "address"
						},
						{
							"indexed": false,
							"internalType": "uint256",
							"name": "monto",
							"type": "uint256"
						},
						{
							"indexed": false,
							"internalType": "uint256",
							"name": "nuevoSaldo",
							"type": "uint256"
						}
					],
					"name": "Deposito",
					"type": "event"
				},
				{
					"anonymous": false,
					"inputs": [
						{
							"indexed": true,
							"internalType": "address",
							"name": "usuario",
							"type": "address"
						},
						{
							"indexed": false,
							"internalType": "uint256",
							"name": "monto",
							"type": "uint256"
						},
						{
							"indexed": false,
							"internalType": "uint256",
							"name": "nuevoSaldo",
							"type": "uint256"
						}
					],
					"name": "Retiro",
					"type": "event"
				},
				{
					"inputs": [],
					"name": "contadorDepositos",
					"outputs": [
						{
							"internalType": "uint256",
							"name": "",
							"type": "uint256"
						}
					],
					"stateMutability": "view",
					"type": "function"
				},
				{
					"inputs": [],
					"name": "contadorRetiros",
					"outputs": [
						{
							"internalType": "uint256",
							"name": "",
							"type": "uint256"
						}
					],
					"stateMutability": "view",
					"type": "function"
				},
				{
					"inputs": [],
					"name": "depositar",
					"outputs": [],
					"stateMutability": "payable",
					"type": "function"
				},
				{
					"inputs": [],
					"name": "limiteBanco",
					"outputs": [
						{
							"internalType": "uint256",
							"name": "",
							"type": "uint256"
						}
					],
					"stateMutability": "view",
					"type": "function"
				},
				{
					"inputs": [],
					"name": "limiteRetiro",
					"outputs": [
						{
							"internalType": "uint256",
							"name": "",
							"type": "uint256"
						}
					],
					"stateMutability": "view",
					"type": "function"
				},
				{
					"inputs": [
						{
							"internalType": "uint256",
							"name": "monto",
							"type": "uint256"
						}
					],
					"name": "retirar",
					"outputs": [],
					"stateMutability": "nonpayable",
					"type": "function"
				},
				{
					"inputs": [
						{
							"internalType": "address",
							"name": "usuario",
							"type": "address"
						}
					],
					"name": "saldoDe",
					"outputs": [
						{
							"internalType": "uint256",
							"name": "",
							"type": "uint256"
						}
					],
					"stateMutability": "view",
					"type": "function"
				},
				{
					"inputs": [],
					"name": "totalDepositado",
					"outputs": [
						{
							"internalType": "uint256",
							"name": "",
							"type": "uint256"
						}
					],
					"stateMutability": "view",
					"type": "function"
				},
				{
					"stateMutability": "payable",
					"type": "receive"
				}
			],
			"devdoc": {
				"details": "Usa errores personalizados, patrón checks-effects-interactions, eventos, NatSpec y funciones bien documentadas",
				"kind": "dev",
				"methods": {
					"constructor": {
						"params": {
							"_limiteBanco": "Límite global en wei",
							"_limiteRetiro": "Límite por transacción en wei"
						}
					},
					"retirar(uint256)": {
						"params": {
							"monto": "Cantidad a retirar en wei"
						}
					},
					"saldoDe(address)": {
						"params": {
							"usuario": "Dirección del usuario"
						},
						"returns": {
							"_0": "saldo en wei"
						}
					}
				},
				"title": "KipuBank — bóvedas personales para ETH con límites globales y por retiro",
				"version": 1
			},
			"evm": {
				"assembly": "    /* \"contracts/kipu-bank.sol\":344:6069  contract KipuBank {... */\n  mstore(0x40, 0xc0)\n    /* \"contracts/kipu-bank.sol\":3012:3153  constructor(uint256 _limiteBanco, uint256 _limiteRetiro) {... */\n  callvalue\n  dup1\n  iszero\n  tag_1\n  jumpi\n  0x00\n  dup1\n  revert\ntag_1:\n  pop\n  mload(0x40)\n  sub(codesize, bytecodeSize)\n  dup1\n  bytecodeSize\n  dup4\n  codecopy\n  dup2\n  dup2\n  add\n  0x40\n  mstore\n  dup2\n  add\n  swap1\n  tag_2\n  swap2\n  swap1\n  tag_3\n  jump\t// in\ntag_2:\n    /* \"contracts/kipu-bank.sol\":3094:3106  _limiteBanco */\n  dup2\n    /* \"contracts/kipu-bank.sol\":3080:3106  limiteBanco = _limiteBanco */\n  0x80\n  dup2\n  dup2\n  mstore\n  pop\n  pop\n    /* \"contracts/kipu-bank.sol\":3132:3145  _limiteRetiro */\n  dup1\n    /* \"contracts/kipu-bank.sol\":3117:3145  limiteRetiro = _limiteRetiro */\n  0xa0\n  dup2\n  dup2\n  mstore\n  pop\n  pop\n    /* \"contracts/kipu-bank.sol\":3012:3153  constructor(uint256 _limiteBanco, uint256 _limiteRetiro) {... */\n  pop\n  pop\n    /* \"contracts/kipu-bank.sol\":344:6069  contract KipuBank {... */\n  jump(tag_6)\n    /* \"#utility.yul\":88:205   */\ntag_8:\n    /* \"#utility.yul\":197:198   */\n  0x00\n    /* \"#utility.yul\":194:195   */\n  dup1\n    /* \"#utility.yul\":187:199   */\n  revert\n    /* \"#utility.yul\":334:411   */\ntag_10:\n    /* \"#utility.yul\":371:378   */\n  0x00\n    /* \"#utility.yul\":400:405   */\n  dup2\n    /* \"#utility.yul\":389:405   */\n  swap1\n  pop\n    /* \"#utility.yul\":334:411   */\n  swap2\n  swap1\n  pop\n  jump\t// out\n    /* \"#utility.yul\":417:539   */\ntag_11:\n    /* \"#utility.yul\":490:514   */\n  tag_19\n    /* \"#utility.yul\":508:513   */\n  dup2\n    /* \"#utility.yul\":490:514   */\n  tag_10\n  jump\t// in\ntag_19:\n    /* \"#utility.yul\":483:488   */\n  dup2\n    /* \"#utility.yul\":480:515   */\n  eq\n    /* \"#utility.yul\":470:533   */\n  tag_20\n  jumpi\n    /* \"#utility.yul\":529:530   */\n  0x00\n    /* \"#utility.yul\":526:527   */\n  dup1\n    /* \"#utility.yul\":519:531   */\n  revert\n    /* \"#utility.yul\":470:533   */\ntag_20:\n    /* \"#utility.yul\":417:539   */\n  pop\n  jump\t// out\n    /* \"#utility.yul\":545:688   */\ntag_12:\n    /* \"#utility.yul\":602:607   */\n  0x00\n    /* \"#utility.yul\":633:639   */\n  dup2\n    /* \"#utility.yul\":627:640   */\n  mload\n    /* \"#utility.yul\":618:640   */\n  swap1\n  pop\n    /* \"#utility.yul\":649:682   */\n  tag_22\n    /* \"#utility.yul\":676:681   */\n  dup2\n    /* \"#utility.yul\":649:682   */\n  tag_11\n  jump\t// in\ntag_22:\n    /* \"#utility.yul\":545:688   */\n  swap3\n  swap2\n  pop\n  pop\n  jump\t// out\n    /* \"#utility.yul\":694:1201   */\ntag_3:\n    /* \"#utility.yul\":773:779   */\n  0x00\n    /* \"#utility.yul\":781:787   */\n  dup1\n    /* \"#utility.yul\":830:832   */\n  0x40\n    /* \"#utility.yul\":818:827   */\n  dup4\n    /* \"#utility.yul\":809:816   */\n  dup6\n    /* \"#utility.yul\":805:828   */\n  sub\n    /* \"#utility.yul\":801:833   */\n  slt\n    /* \"#utility.yul\":798:917   */\n  iszero\n  tag_24\n  jumpi\n    /* \"#utility.yul\":836:915   */\n  tag_25\n  tag_8\n  jump\t// in\ntag_25:\n    /* \"#utility.yul\":798:917   */\ntag_24:\n    /* \"#utility.yul\":956:957   */\n  0x00\n    /* \"#utility.yul\":981:1045   */\n  tag_26\n    /* \"#utility.yul\":1037:1044   */\n  dup6\n    /* \"#utility.yul\":1028:1034   */\n  dup3\n    /* \"#utility.yul\":1017:1026   */\n  dup7\n    /* \"#utility.yul\":1013:1035   */\n  add\n    /* \"#utility.yul\":981:1045   */\n  tag_12\n  jump\t// in\ntag_26:\n    /* \"#utility.yul\":971:1045   */\n  swap3\n  pop\n    /* \"#utility.yul\":927:1055   */\n  pop\n    /* \"#utility.yul\":1094:1096   */\n  0x20\n    /* \"#utility.yul\":1120:1184   */\n  tag_27\n    /* \"#utility.yul\":1176:1183   */\n  dup6\n    /* \"#utility.yul\":1167:1173   */\n  dup3\n    /* \"#utility.yul\":1156:1165   */\n  dup7\n    /* \"#utility.yul\":1152:1174   */\n  add\n    /* \"#utility.yul\":1120:1184   */\n  tag_12\n  jump\t// in\ntag_27:\n    /* \"#utility.yul\":1110:1184   */\n  swap2\n  pop\n    /* \"#utility.yul\":1065:1194   */\n  pop\n    /* \"#utility.yul\":694:1201   */\n  swap3\n  pop\n  swap3\n  swap1\n  pop\n  jump\t// out\n    /* \"contracts/kipu-bank.sol\":344:6069  contract KipuBank {... */\ntag_6:\n  mload(0x80)\n  mload(0xa0)\n  codecopy(0x00, dataOffset(sub_0), dataSize(sub_0))\n  0x00\n  assignImmutable(\"0x318a541463286d7584b45438601196fbc1a55628e303a0613eb6d46e60640c95\")\n  0x00\n  assignImmutable(\"0x3b4066bd7b7960752225af105d3beafb5c47a26c5aae7e6798a437b7c0bb33e6\")\n  return(0x00, dataSize(sub_0))\nstop\n\nsub_0: assembly {\n        /* \"contracts/kipu-bank.sol\":344:6069  contract KipuBank {... */\n      mstore(0x40, 0x80)\n      jumpi(tag_1, lt(calldatasize, 0x04))\n      shr(0xe0, calldataload(0x00))\n      dup1\n      0x86968259\n      gt\n      tag_11\n      jumpi\n      dup1\n      0x86968259\n      eq\n      tag_7\n      jumpi\n      dup1\n      0xc8ddec1b\n      eq\n      tag_8\n      jumpi\n      dup1\n      0xe8b1298f\n      eq\n      tag_9\n      jumpi\n      dup1\n      0xf061293a\n      eq\n      tag_10\n      jumpi\n      jump(tag_2)\n    tag_11:\n      dup1\n      0x3d922f90\n      eq\n      tag_3\n      jumpi\n      dup1\n      0x44953313\n      eq\n      tag_4\n      jumpi\n      dup1\n      0x5f0073d0\n      eq\n      tag_5\n      jumpi\n      dup1\n      0x6baf38ca\n      eq\n      tag_6\n      jumpi\n      jump(tag_2)\n    tag_1:\n      jumpi(tag_2, calldatasize)\n        /* \"contracts/kipu-bank.sol\":6025:6058  _depositar(msg.sender, msg.value) */\n      tag_14\n        /* \"contracts/kipu-bank.sol\":6036:6046  msg.sender */\n      caller\n        /* \"contracts/kipu-bank.sol\":6048:6057  msg.value */\n      callvalue\n        /* \"contracts/kipu-bank.sol\":6025:6035  _depositar */\n      tag_15\n        /* \"contracts/kipu-bank.sol\":6025:6058  _depositar(msg.sender, msg.value) */\n      jump\t// in\n    tag_14:\n        /* \"contracts/kipu-bank.sol\":344:6069  contract KipuBank {... */\n      stop\n    tag_2:\n      0x00\n      dup1\n      revert\n        /* \"contracts/kipu-bank.sol\":3748:3838  function depositar() external payable {... */\n    tag_3:\n      tag_16\n      tag_17\n      jump\t// in\n    tag_16:\n      stop\n        /* \"contracts/kipu-bank.sol\":1642:1679  uint256 public immutable limiteRetiro */\n    tag_4:\n      callvalue\n      dup1\n      iszero\n      tag_18\n      jumpi\n      0x00\n      dup1\n      revert\n    tag_18:\n      pop\n      tag_19\n      tag_20\n      jump\t// in\n    tag_19:\n      mload(0x40)\n      tag_21\n      swap2\n      swap1\n      tag_22\n      jump\t// in\n    tag_21:\n      mload(0x40)\n      dup1\n      swap2\n      sub\n      swap1\n      return\n        /* \"contracts/kipu-bank.sol\":1941:1971  uint256 public totalDepositado */\n    tag_5:\n      callvalue\n      dup1\n      iszero\n      tag_23\n      jumpi\n      0x00\n      dup1\n      revert\n    tag_23:\n      pop\n      tag_24\n      tag_25\n      jump\t// in\n    tag_24:\n      mload(0x40)\n      tag_26\n      swap2\n      swap1\n      tag_22\n      jump\t// in\n    tag_26:\n      mload(0x40)\n      dup1\n      swap2\n      sub\n      swap1\n      return\n        /* \"contracts/kipu-bank.sol\":4651:4758  function saldoDe(address usuario) external view returns (uint256) {... */\n    tag_6:\n      callvalue\n      dup1\n      iszero\n      tag_27\n      jumpi\n      0x00\n      dup1\n      revert\n    tag_27:\n      pop\n      tag_28\n      0x04\n      dup1\n      calldatasize\n      sub\n      dup2\n      add\n      swap1\n      tag_29\n      swap2\n      swap1\n      tag_30\n      jump\t// in\n    tag_29:\n      tag_31\n      jump\t// in\n    tag_28:\n      mload(0x40)\n      tag_32\n      swap2\n      swap1\n      tag_22\n      jump\t// in\n    tag_32:\n      mload(0x40)\n      dup1\n      swap2\n      sub\n      swap1\n      return\n        /* \"contracts/kipu-bank.sol\":2031:2063  uint256 public contadorDepositos */\n    tag_7:\n      callvalue\n      dup1\n      iszero\n      tag_33\n      jumpi\n      0x00\n      dup1\n      revert\n    tag_33:\n      pop\n      tag_34\n      tag_35\n      jump\t// in\n    tag_34:\n      mload(0x40)\n      tag_36\n      swap2\n      swap1\n      tag_22\n      jump\t// in\n    tag_36:\n      mload(0x40)\n      dup1\n      swap2\n      sub\n      swap1\n      return\n        /* \"contracts/kipu-bank.sol\":1503:1539  uint256 public immutable limiteBanco */\n    tag_8:\n      callvalue\n      dup1\n      iszero\n      tag_37\n      jumpi\n      0x00\n      dup1\n      revert\n    tag_37:\n      pop\n      tag_38\n      tag_39\n      jump\t// in\n    tag_38:\n      mload(0x40)\n      tag_40\n      swap2\n      swap1\n      tag_22\n      jump\t// in\n    tag_40:\n      mload(0x40)\n      dup1\n      swap2\n      sub\n      swap1\n      return\n        /* \"contracts/kipu-bank.sol\":3948:4517  function retirar(uint256 monto) external montoNoCero(monto) {... */\n    tag_9:\n      callvalue\n      dup1\n      iszero\n      tag_41\n      jumpi\n      0x00\n      dup1\n      revert\n    tag_41:\n      pop\n      tag_42\n      0x04\n      dup1\n      calldatasize\n      sub\n      dup2\n      add\n      swap1\n      tag_43\n      swap2\n      swap1\n      tag_44\n      jump\t// in\n    tag_43:\n      tag_45\n      jump\t// in\n    tag_42:\n      stop\n        /* \"contracts/kipu-bank.sol\":2120:2150  uint256 public contadorRetiros */\n    tag_10:\n      callvalue\n      dup1\n      iszero\n      tag_46\n      jumpi\n      0x00\n      dup1\n      revert\n    tag_46:\n      pop\n      tag_47\n      tag_48\n      jump\t// in\n    tag_47:\n      mload(0x40)\n      tag_49\n      swap2\n      swap1\n      tag_22\n      jump\t// in\n    tag_49:\n      mload(0x40)\n      dup1\n      swap2\n      sub\n      swap1\n      return\n        /* \"contracts/kipu-bank.sol\":5027:5480  function _depositar(address usuario, uint256 monto) private {... */\n    tag_15:\n        /* \"contracts/kipu-bank.sol\":5098:5116  uint256 nuevoTotal */\n      0x00\n        /* \"contracts/kipu-bank.sol\":5137:5142  monto */\n      dup2\n        /* \"contracts/kipu-bank.sol\":5119:5134  totalDepositado */\n      sload(0x00)\n        /* \"contracts/kipu-bank.sol\":5119:5142  totalDepositado + monto */\n      tag_51\n      swap2\n      swap1\n      tag_52\n      jump\t// in\n    tag_51:\n        /* \"contracts/kipu-bank.sol\":5098:5142  uint256 nuevoTotal = totalDepositado + monto */\n      swap1\n      pop\n        /* \"contracts/kipu-bank.sol\":5191:5202  limiteBanco */\n      immutable(\"0x3b4066bd7b7960752225af105d3beafb5c47a26c5aae7e6798a437b7c0bb33e6\")\n        /* \"contracts/kipu-bank.sol\":5178:5188  nuevoTotal */\n      dup2\n        /* \"contracts/kipu-bank.sol\":5178:5202  nuevoTotal > limiteBanco */\n      gt\n        /* \"contracts/kipu-bank.sol\":5174:5273  if (nuevoTotal > limiteBanco) revert LimiteBancoExcedido(nuevoTotal, limiteBanco - totalDepositado) */\n      iszero\n      tag_53\n      jumpi\n        /* \"contracts/kipu-bank.sol\":5231:5241  nuevoTotal */\n      dup1\n        /* \"contracts/kipu-bank.sol\":5257:5272  totalDepositado */\n      sload(0x00)\n        /* \"contracts/kipu-bank.sol\":5243:5254  limiteBanco */\n      immutable(\"0x3b4066bd7b7960752225af105d3beafb5c47a26c5aae7e6798a437b7c0bb33e6\")\n        /* \"contracts/kipu-bank.sol\":5243:5272  limiteBanco - totalDepositado */\n      tag_54\n      swap2\n      swap1\n      tag_55\n      jump\t// in\n    tag_54:\n        /* \"contracts/kipu-bank.sol\":5211:5273  LimiteBancoExcedido(nuevoTotal, limiteBanco - totalDepositado) */\n      mload(0x40)\n      0x6492294500000000000000000000000000000000000000000000000000000000\n      dup2\n      mstore\n      0x04\n      add\n      tag_56\n      swap3\n      swap2\n      swap1\n      tag_57\n      jump\t// in\n    tag_56:\n      mload(0x40)\n      dup1\n      swap2\n      sub\n      swap1\n      revert\n        /* \"contracts/kipu-bank.sol\":5174:5273  if (nuevoTotal > limiteBanco) revert LimiteBancoExcedido(nuevoTotal, limiteBanco - totalDepositado) */\n    tag_53:\n        /* \"contracts/kipu-bank.sol\":5325:5330  monto */\n      dup2\n        /* \"contracts/kipu-bank.sol\":5306:5312  saldos */\n      0x03\n        /* \"contracts/kipu-bank.sol\":5306:5321  saldos[usuario] */\n      0x00\n        /* \"contracts/kipu-bank.sol\":5313:5320  usuario */\n      dup6\n        /* \"contracts/kipu-bank.sol\":5306:5321  saldos[usuario] */\n      0xffffffffffffffffffffffffffffffffffffffff\n      and\n      0xffffffffffffffffffffffffffffffffffffffff\n      and\n      dup2\n      mstore\n      0x20\n      add\n      swap1\n      dup2\n      mstore\n      0x20\n      add\n      0x00\n      keccak256\n      0x00\n        /* \"contracts/kipu-bank.sol\":5306:5330  saldos[usuario] += monto */\n      dup3\n      dup3\n      sload\n      tag_58\n      swap2\n      swap1\n      tag_52\n      jump\t// in\n    tag_58:\n      swap3\n      pop\n      pop\n      dup2\n      swap1\n      sstore\n      pop\n        /* \"contracts/kipu-bank.sol\":5359:5369  nuevoTotal */\n      dup1\n        /* \"contracts/kipu-bank.sol\":5341:5356  totalDepositado */\n      0x00\n        /* \"contracts/kipu-bank.sol\":5341:5369  totalDepositado = nuevoTotal */\n      dup2\n      swap1\n      sstore\n      pop\n        /* \"contracts/kipu-bank.sol\":5392:5409  contadorDepositos */\n      0x01\n      0x00\n        /* \"contracts/kipu-bank.sol\":5392:5411  contadorDepositos++ */\n      dup2\n      sload\n      dup1\n      swap3\n      swap2\n      swap1\n      0x01\n      add\n      swap2\n      swap1\n      pop\n      sstore\n      pop\n        /* \"contracts/kipu-bank.sol\":5440:5447  usuario */\n      dup3\n        /* \"contracts/kipu-bank.sol\":5431:5472  Deposito(usuario, monto, saldos[usuario]) */\n      0xffffffffffffffffffffffffffffffffffffffff\n      and\n      0x610daa02a124f86e54502578bf493432a3834b1138f1456e59e0e807357b6395\n        /* \"contracts/kipu-bank.sol\":5449:5454  monto */\n      dup4\n        /* \"contracts/kipu-bank.sol\":5456:5462  saldos */\n      0x03\n        /* \"contracts/kipu-bank.sol\":5456:5471  saldos[usuario] */\n      0x00\n        /* \"contracts/kipu-bank.sol\":5463:5470  usuario */\n      dup8\n        /* \"contracts/kipu-bank.sol\":5456:5471  saldos[usuario] */\n      0xffffffffffffffffffffffffffffffffffffffff\n      and\n      0xffffffffffffffffffffffffffffffffffffffff\n      and\n      dup2\n      mstore\n      0x20\n      add\n      swap1\n      dup2\n      mstore\n      0x20\n      add\n      0x00\n      keccak256\n      sload\n        /* \"contracts/kipu-bank.sol\":5431:5472  Deposito(usuario, monto, saldos[usuario]) */\n      mload(0x40)\n      tag_59\n      swap3\n      swap2\n      swap1\n      tag_57\n      jump\t// in\n    tag_59:\n      mload(0x40)\n      dup1\n      swap2\n      sub\n      swap1\n      log2\n        /* \"contracts/kipu-bank.sol\":5087:5480  {... */\n      pop\n        /* \"contracts/kipu-bank.sol\":5027:5480  function _depositar(address usuario, uint256 monto) private {... */\n      pop\n      pop\n      jump\t// out\n        /* \"contracts/kipu-bank.sol\":3748:3838  function depositar() external payable {... */\n    tag_17:\n        /* \"contracts/kipu-bank.sol\":3797:3830  _depositar(msg.sender, msg.value) */\n      tag_61\n        /* \"contracts/kipu-bank.sol\":3808:3818  msg.sender */\n      caller\n        /* \"contracts/kipu-bank.sol\":3820:3829  msg.value */\n      callvalue\n        /* \"contracts/kipu-bank.sol\":3797:3807  _depositar */\n      tag_15\n        /* \"contracts/kipu-bank.sol\":3797:3830  _depositar(msg.sender, msg.value) */\n      jump\t// in\n    tag_61:\n        /* \"contracts/kipu-bank.sol\":3748:3838  function depositar() external payable {... */\n      jump\t// out\n        /* \"contracts/kipu-bank.sol\":1642:1679  uint256 public immutable limiteRetiro */\n    tag_20:\n      immutable(\"0x318a541463286d7584b45438601196fbc1a55628e303a0613eb6d46e60640c95\")\n      dup2\n      jump\t// out\n        /* \"contracts/kipu-bank.sol\":1941:1971  uint256 public totalDepositado */\n    tag_25:\n      sload(0x00)\n      dup2\n      jump\t// out\n        /* \"contracts/kipu-bank.sol\":4651:4758  function saldoDe(address usuario) external view returns (uint256) {... */\n    tag_31:\n        /* \"contracts/kipu-bank.sol\":4708:4715  uint256 */\n      0x00\n        /* \"contracts/kipu-bank.sol\":4735:4741  saldos */\n      0x03\n        /* \"contracts/kipu-bank.sol\":4735:4750  saldos[usuario] */\n      0x00\n        /* \"contracts/kipu-bank.sol\":4742:4749  usuario */\n      dup4\n        /* \"contracts/kipu-bank.sol\":4735:4750  saldos[usuario] */\n      0xffffffffffffffffffffffffffffffffffffffff\n      and\n      0xffffffffffffffffffffffffffffffffffffffff\n      and\n      dup2\n      mstore\n      0x20\n      add\n      swap1\n      dup2\n      mstore\n      0x20\n      add\n      0x00\n      keccak256\n      sload\n        /* \"contracts/kipu-bank.sol\":4728:4750  return saldos[usuario] */\n      swap1\n      pop\n        /* \"contracts/kipu-bank.sol\":4651:4758  function saldoDe(address usuario) external view returns (uint256) {... */\n      swap2\n      swap1\n      pop\n      jump\t// out\n        /* \"contracts/kipu-bank.sol\":2031:2063  uint256 public contadorDepositos */\n    tag_35:\n      sload(0x01)\n      dup2\n      jump\t// out\n        /* \"contracts/kipu-bank.sol\":1503:1539  uint256 public immutable limiteBanco */\n    tag_39:\n      immutable(\"0x3b4066bd7b7960752225af105d3beafb5c47a26c5aae7e6798a437b7c0bb33e6\")\n      dup2\n      jump\t// out\n        /* \"contracts/kipu-bank.sol\":3948:4517  function retirar(uint256 monto) external montoNoCero(monto) {... */\n    tag_45:\n        /* \"contracts/kipu-bank.sol\":4001:4006  monto */\n      dup1\n        /* \"contracts/kipu-bank.sol\":3453:3454  0 */\n      0x00\n        /* \"contracts/kipu-bank.sol\":3444:3449  valor */\n      dup2\n        /* \"contracts/kipu-bank.sol\":3444:3454  valor == 0 */\n      sub\n        /* \"contracts/kipu-bank.sol\":3440:3474  if (valor == 0) revert MontoCero() */\n      tag_64\n      jumpi\n        /* \"contracts/kipu-bank.sol\":3463:3474  MontoCero() */\n      mload(0x40)\n      0x85ea51af00000000000000000000000000000000000000000000000000000000\n      dup2\n      mstore\n      0x04\n      add\n      mload(0x40)\n      dup1\n      swap2\n      sub\n      swap1\n      revert\n        /* \"contracts/kipu-bank.sol\":3440:3474  if (valor == 0) revert MontoCero() */\n    tag_64:\n        /* \"contracts/kipu-bank.sol\":4019:4032  uint256 saldo */\n      0x00\n        /* \"contracts/kipu-bank.sol\":4035:4041  saldos */\n      0x03\n        /* \"contracts/kipu-bank.sol\":4035:4053  saldos[msg.sender] */\n      0x00\n        /* \"contracts/kipu-bank.sol\":4042:4052  msg.sender */\n      caller\n        /* \"contracts/kipu-bank.sol\":4035:4053  saldos[msg.sender] */\n      0xffffffffffffffffffffffffffffffffffffffff\n      and\n      0xffffffffffffffffffffffffffffffffffffffff\n      and\n      dup2\n      mstore\n      0x20\n      add\n      swap1\n      dup2\n      mstore\n      0x20\n      add\n      0x00\n      keccak256\n      sload\n        /* \"contracts/kipu-bank.sol\":4019:4053  uint256 saldo = saldos[msg.sender] */\n      swap1\n      pop\n        /* \"contracts/kipu-bank.sol\":4097:4102  saldo */\n      dup1\n        /* \"contracts/kipu-bank.sol\":4089:4094  monto */\n      dup4\n        /* \"contracts/kipu-bank.sol\":4089:4102  monto > saldo */\n      gt\n        /* \"contracts/kipu-bank.sol\":4085:4142  if (monto > saldo) revert SaldoInsuficiente(saldo, monto) */\n      iszero\n      tag_66\n      jumpi\n        /* \"contracts/kipu-bank.sol\":4129:4134  saldo */\n      dup1\n        /* \"contracts/kipu-bank.sol\":4136:4141  monto */\n      dup4\n        /* \"contracts/kipu-bank.sol\":4111:4142  SaldoInsuficiente(saldo, monto) */\n      mload(0x40)\n      0x9d8b89ca00000000000000000000000000000000000000000000000000000000\n      dup2\n      mstore\n      0x04\n      add\n      tag_67\n      swap3\n      swap2\n      swap1\n      tag_57\n      jump\t// in\n    tag_67:\n      mload(0x40)\n      dup1\n      swap2\n      sub\n      swap1\n      revert\n        /* \"contracts/kipu-bank.sol\":4085:4142  if (monto > saldo) revert SaldoInsuficiente(saldo, monto) */\n    tag_66:\n        /* \"contracts/kipu-bank.sol\":4165:4177  limiteRetiro */\n      immutable(\"0x318a541463286d7584b45438601196fbc1a55628e303a0613eb6d46e60640c95\")\n        /* \"contracts/kipu-bank.sol\":4157:4162  monto */\n      dup4\n        /* \"contracts/kipu-bank.sol\":4157:4177  monto > limiteRetiro */\n      gt\n        /* \"contracts/kipu-bank.sol\":4153:4225  if (monto > limiteRetiro) revert RetiroExcedeLimite(monto, limiteRetiro) */\n      iszero\n      tag_68\n      jumpi\n        /* \"contracts/kipu-bank.sol\":4205:4210  monto */\n      dup3\n        /* \"contracts/kipu-bank.sol\":4212:4224  limiteRetiro */\n      immutable(\"0x318a541463286d7584b45438601196fbc1a55628e303a0613eb6d46e60640c95\")\n        /* \"contracts/kipu-bank.sol\":4186:4225  RetiroExcedeLimite(monto, limiteRetiro) */\n      mload(0x40)\n      0xd021cb2f00000000000000000000000000000000000000000000000000000000\n      dup2\n      mstore\n      0x04\n      add\n      tag_69\n      swap3\n      swap2\n      swap1\n      tag_57\n      jump\t// in\n    tag_69:\n      mload(0x40)\n      dup1\n      swap2\n      sub\n      swap1\n      revert\n        /* \"contracts/kipu-bank.sol\":4153:4225  if (monto > limiteRetiro) revert RetiroExcedeLimite(monto, limiteRetiro) */\n    tag_68:\n        /* \"contracts/kipu-bank.sol\":4287:4292  monto */\n      dup3\n        /* \"contracts/kipu-bank.sol\":4279:4284  saldo */\n      dup2\n        /* \"contracts/kipu-bank.sol\":4279:4292  saldo - monto */\n      tag_70\n      swap2\n      swap1\n      tag_55\n      jump\t// in\n    tag_70:\n        /* \"contracts/kipu-bank.sol\":4258:4264  saldos */\n      0x03\n        /* \"contracts/kipu-bank.sol\":4258:4276  saldos[msg.sender] */\n      0x00\n        /* \"contracts/kipu-bank.sol\":4265:4275  msg.sender */\n      caller\n        /* \"contracts/kipu-bank.sol\":4258:4276  saldos[msg.sender] */\n      0xffffffffffffffffffffffffffffffffffffffff\n      and\n      0xffffffffffffffffffffffffffffffffffffffff\n      and\n      dup2\n      mstore\n      0x20\n      add\n      swap1\n      dup2\n      mstore\n      0x20\n      add\n      0x00\n      keccak256\n        /* \"contracts/kipu-bank.sol\":4258:4292  saldos[msg.sender] = saldo - monto */\n      dup2\n      swap1\n      sstore\n      pop\n        /* \"contracts/kipu-bank.sol\":4322:4327  monto */\n      dup3\n        /* \"contracts/kipu-bank.sol\":4303:4318  totalDepositado */\n      0x00\n      dup1\n        /* \"contracts/kipu-bank.sol\":4303:4327  totalDepositado -= monto */\n      dup3\n      dup3\n      sload\n      tag_71\n      swap2\n      swap1\n      tag_55\n      jump\t// in\n    tag_71:\n      swap3\n      pop\n      pop\n      dup2\n      swap1\n      sstore\n      pop\n        /* \"contracts/kipu-bank.sol\":4350:4365  contadorRetiros */\n      0x02\n      0x00\n        /* \"contracts/kipu-bank.sol\":4350:4367  contadorRetiros++ */\n      dup2\n      sload\n      dup1\n      swap3\n      swap2\n      swap1\n      0x01\n      add\n      swap2\n      swap1\n      pop\n      sstore\n      pop\n        /* \"contracts/kipu-bank.sol\":4407:4446  _transferenciaSegura(msg.sender, monto) */\n      tag_72\n        /* \"contracts/kipu-bank.sol\":4428:4438  msg.sender */\n      caller\n        /* \"contracts/kipu-bank.sol\":4440:4445  monto */\n      dup5\n        /* \"contracts/kipu-bank.sol\":4407:4427  _transferenciaSegura */\n      tag_73\n        /* \"contracts/kipu-bank.sol\":4407:4446  _transferenciaSegura(msg.sender, monto) */\n      jump\t// in\n    tag_72:\n        /* \"contracts/kipu-bank.sol\":4471:4481  msg.sender */\n      caller\n        /* \"contracts/kipu-bank.sol\":4464:4509  Retiro(msg.sender, monto, saldos[msg.sender]) */\n      0xffffffffffffffffffffffffffffffffffffffff\n      and\n      0x513a4e63a7de56cc9b7c15d2467c0ad91c82df2b439cc2c4992f0b3b4b997d14\n        /* \"contracts/kipu-bank.sol\":4483:4488  monto */\n      dup5\n        /* \"contracts/kipu-bank.sol\":4490:4496  saldos */\n      0x03\n        /* \"contracts/kipu-bank.sol\":4490:4508  saldos[msg.sender] */\n      0x00\n        /* \"contracts/kipu-bank.sol\":4497:4507  msg.sender */\n      caller\n        /* \"contracts/kipu-bank.sol\":4490:4508  saldos[msg.sender] */\n      0xffffffffffffffffffffffffffffffffffffffff\n      and\n      0xffffffffffffffffffffffffffffffffffffffff\n      and\n      dup2\n      mstore\n      0x20\n      add\n      swap1\n      dup2\n      mstore\n      0x20\n      add\n      0x00\n      keccak256\n      sload\n        /* \"contracts/kipu-bank.sol\":4464:4509  Retiro(msg.sender, monto, saldos[msg.sender]) */\n      mload(0x40)\n      tag_74\n      swap3\n      swap2\n      swap1\n      tag_57\n      jump\t// in\n    tag_74:\n      mload(0x40)\n      dup1\n      swap2\n      sub\n      swap1\n      log2\n        /* \"contracts/kipu-bank.sol\":4008:4517  {... */\n      pop\n        /* \"contracts/kipu-bank.sol\":3948:4517  function retirar(uint256 monto) external montoNoCero(monto) {... */\n      pop\n      pop\n      jump\t// out\n        /* \"contracts/kipu-bank.sol\":2120:2150  uint256 public contadorRetiros */\n    tag_48:\n      sload(0x02)\n      dup2\n      jump\t// out\n        /* \"contracts/kipu-bank.sol\":5530:5726  function _transferenciaSegura(address destino, uint256 monto) private {... */\n    tag_73:\n        /* \"contracts/kipu-bank.sol\":5612:5619  bool ok */\n      0x00\n        /* \"contracts/kipu-bank.sol\":5625:5632  destino */\n      dup3\n        /* \"contracts/kipu-bank.sol\":5625:5637  destino.call */\n      0xffffffffffffffffffffffffffffffffffffffff\n      and\n        /* \"contracts/kipu-bank.sol\":5645:5650  monto */\n      dup3\n        /* \"contracts/kipu-bank.sol\":5625:5655  destino.call{value: monto}(\"\") */\n      mload(0x40)\n      tag_76\n      swap1\n      tag_77\n      jump\t// in\n    tag_76:\n      0x00\n      mload(0x40)\n      dup1\n      dup4\n      sub\n      dup2\n      dup6\n      dup8\n      gas\n      call\n      swap3\n      pop\n      pop\n      pop\n      returndatasize\n      dup1\n      0x00\n      dup2\n      eq\n      tag_80\n      jumpi\n      mload(0x40)\n      swap2\n      pop\n      and(add(returndatasize, 0x3f), not(0x1f))\n      dup3\n      add\n      0x40\n      mstore\n      returndatasize\n      dup3\n      mstore\n      returndatasize\n      0x00\n      0x20\n      dup5\n      add\n      returndatacopy\n      jump(tag_79)\n    tag_80:\n      0x60\n      swap2\n      pop\n    tag_79:\n      pop\n        /* \"contracts/kipu-bank.sol\":5611:5655  (bool ok, ) = destino.call{value: monto}(\"\") */\n      pop\n      swap1\n      pop\n        /* \"contracts/kipu-bank.sol\":5671:5673  ok */\n      dup1\n        /* \"contracts/kipu-bank.sol\":5666:5718  if (!ok) revert TransferenciaFallida(destino, monto) */\n      tag_81\n      jumpi\n        /* \"contracts/kipu-bank.sol\":5703:5710  destino */\n      dup3\n        /* \"contracts/kipu-bank.sol\":5712:5717  monto */\n      dup3\n        /* \"contracts/kipu-bank.sol\":5682:5718  TransferenciaFallida(destino, monto) */\n      mload(0x40)\n      0xc66cee3800000000000000000000000000000000000000000000000000000000\n      dup2\n      mstore\n      0x04\n      add\n      tag_82\n      swap3\n      swap2\n      swap1\n      tag_83\n      jump\t// in\n    tag_82:\n      mload(0x40)\n      dup1\n      swap2\n      sub\n      swap1\n      revert\n        /* \"contracts/kipu-bank.sol\":5666:5718  if (!ok) revert TransferenciaFallida(destino, monto) */\n    tag_81:\n        /* \"contracts/kipu-bank.sol\":5600:5726  {... */\n      pop\n        /* \"contracts/kipu-bank.sol\":5530:5726  function _transferenciaSegura(address destino, uint256 monto) private {... */\n      pop\n      pop\n      jump\t// out\n        /* \"#utility.yul\":7:84   */\n    tag_84:\n        /* \"#utility.yul\":44:51   */\n      0x00\n        /* \"#utility.yul\":73:78   */\n      dup2\n        /* \"#utility.yul\":62:78   */\n      swap1\n      pop\n        /* \"#utility.yul\":7:84   */\n      swap2\n      swap1\n      pop\n      jump\t// out\n        /* \"#utility.yul\":90:208   */\n    tag_85:\n        /* \"#utility.yul\":177:201   */\n      tag_103\n        /* \"#utility.yul\":195:200   */\n      dup2\n        /* \"#utility.yul\":177:201   */\n      tag_84\n      jump\t// in\n    tag_103:\n        /* \"#utility.yul\":172:175   */\n      dup3\n        /* \"#utility.yul\":165:202   */\n      mstore\n        /* \"#utility.yul\":90:208   */\n      pop\n      pop\n      jump\t// out\n        /* \"#utility.yul\":214:436   */\n    tag_22:\n        /* \"#utility.yul\":307:311   */\n      0x00\n        /* \"#utility.yul\":345:347   */\n      0x20\n        /* \"#utility.yul\":334:343   */\n      dup3\n        /* \"#utility.yul\":330:348   */\n      add\n        /* \"#utility.yul\":322:348   */\n      swap1\n      pop\n        /* \"#utility.yul\":358:429   */\n      tag_105\n        /* \"#utility.yul\":426:427   */\n      0x00\n        /* \"#utility.yul\":415:424   */\n      dup4\n        /* \"#utility.yul\":411:428   */\n      add\n        /* \"#utility.yul\":402:408   */\n      dup5\n        /* \"#utility.yul\":358:429   */\n      tag_85\n      jump\t// in\n    tag_105:\n        /* \"#utility.yul\":214:436   */\n      swap3\n      swap2\n      pop\n      pop\n      jump\t// out\n        /* \"#utility.yul\":523:640   */\n    tag_87:\n        /* \"#utility.yul\":632:633   */\n      0x00\n        /* \"#utility.yul\":629:630   */\n      dup1\n        /* \"#utility.yul\":622:634   */\n      revert\n        /* \"#utility.yul\":769:895   */\n    tag_89:\n        /* \"#utility.yul\":806:813   */\n      0x00\n        /* \"#utility.yul\":846:888   */\n      0xffffffffffffffffffffffffffffffffffffffff\n        /* \"#utility.yul\":839:844   */\n      dup3\n        /* \"#utility.yul\":835:889   */\n      and\n        /* \"#utility.yul\":824:889   */\n      swap1\n      pop\n        /* \"#utility.yul\":769:895   */\n      swap2\n      swap1\n      pop\n      jump\t// out\n        /* \"#utility.yul\":901:997   */\n    tag_90:\n        /* \"#utility.yul\":938:945   */\n      0x00\n        /* \"#utility.yul\":967:991   */\n      tag_111\n        /* \"#utility.yul\":985:990   */\n      dup3\n        /* \"#utility.yul\":967:991   */\n      tag_89\n      jump\t// in\n    tag_111:\n        /* \"#utility.yul\":956:991   */\n      swap1\n      pop\n        /* \"#utility.yul\":901:997   */\n      swap2\n      swap1\n      pop\n      jump\t// out\n        /* \"#utility.yul\":1003:1125   */\n    tag_91:\n        /* \"#utility.yul\":1076:1100   */\n      tag_113\n        /* \"#utility.yul\":1094:1099   */\n      dup2\n        /* \"#utility.yul\":1076:1100   */\n      tag_90\n      jump\t// in\n    tag_113:\n        /* \"#utility.yul\":1069:1074   */\n      dup2\n        /* \"#utility.yul\":1066:1101   */\n      eq\n        /* \"#utility.yul\":1056:1119   */\n      tag_114\n      jumpi\n        /* \"#utility.yul\":1115:1116   */\n      0x00\n        /* \"#utility.yul\":1112:1113   */\n      dup1\n        /* \"#utility.yul\":1105:1117   */\n      revert\n        /* \"#utility.yul\":1056:1119   */\n    tag_114:\n        /* \"#utility.yul\":1003:1125   */\n      pop\n      jump\t// out\n        /* \"#utility.yul\":1131:1270   */\n    tag_92:\n        /* \"#utility.yul\":1177:1182   */\n      0x00\n        /* \"#utility.yul\":1215:1221   */\n      dup2\n        /* \"#utility.yul\":1202:1222   */\n      calldataload\n        /* \"#utility.yul\":1193:1222   */\n      swap1\n      pop\n        /* \"#utility.yul\":1231:1264   */\n      tag_116\n        /* \"#utility.yul\":1258:1263   */\n      dup2\n        /* \"#utility.yul\":1231:1264   */\n      tag_91\n      jump\t// in\n    tag_116:\n        /* \"#utility.yul\":1131:1270   */\n      swap3\n      swap2\n      pop\n      pop\n      jump\t// out\n        /* \"#utility.yul\":1276:1605   */\n    tag_30:\n        /* \"#utility.yul\":1335:1341   */\n      0x00\n        /* \"#utility.yul\":1384:1386   */\n      0x20\n        /* \"#utility.yul\":1372:1381   */\n      dup3\n        /* \"#utility.yul\":1363:1370   */\n      dup5\n        /* \"#utility.yul\":1359:1382   */\n      sub\n        /* \"#utility.yul\":1355:1387   */\n      slt\n        /* \"#utility.yul\":1352:1471   */\n      iszero\n      tag_118\n      jumpi\n        /* \"#utility.yul\":1390:1469   */\n      tag_119\n      tag_87\n      jump\t// in\n    tag_119:\n        /* \"#utility.yul\":1352:1471   */\n    tag_118:\n        /* \"#utility.yul\":1510:1511   */\n      0x00\n        /* \"#utility.yul\":1535:1588   */\n      tag_120\n        /* \"#utility.yul\":1580:1587   */\n      dup5\n        /* \"#utility.yul\":1571:1577   */\n      dup3\n        /* \"#utility.yul\":1560:1569   */\n      dup6\n        /* \"#utility.yul\":1556:1578   */\n      add\n        /* \"#utility.yul\":1535:1588   */\n      tag_92\n      jump\t// in\n    tag_120:\n        /* \"#utility.yul\":1525:1588   */\n      swap2\n      pop\n        /* \"#utility.yul\":1481:1598   */\n      pop\n        /* \"#utility.yul\":1276:1605   */\n      swap3\n      swap2\n      pop\n      pop\n      jump\t// out\n        /* \"#utility.yul\":1611:1733   */\n    tag_93:\n        /* \"#utility.yul\":1684:1708   */\n      tag_122\n        /* \"#utility.yul\":1702:1707   */\n      dup2\n        /* \"#utility.yul\":1684:1708   */\n      tag_84\n      jump\t// in\n    tag_122:\n        /* \"#utility.yul\":1677:1682   */\n      dup2\n        /* \"#utility.yul\":1674:1709   */\n      eq\n        /* \"#utility.yul\":1664:1727   */\n      tag_123\n      jumpi\n        /* \"#utility.yul\":1723:1724   */\n      0x00\n        /* \"#utility.yul\":1720:1721   */\n      dup1\n        /* \"#utility.yul\":1713:1725   */\n      revert\n        /* \"#utility.yul\":1664:1727   */\n    tag_123:\n        /* \"#utility.yul\":1611:1733   */\n      pop\n      jump\t// out\n        /* \"#utility.yul\":1739:1878   */\n    tag_94:\n        /* \"#utility.yul\":1785:1790   */\n      0x00\n        /* \"#utility.yul\":1823:1829   */\n      dup2\n        /* \"#utility.yul\":1810:1830   */\n      calldataload\n        /* \"#utility.yul\":1801:1830   */\n      swap1\n      pop\n        /* \"#utility.yul\":1839:1872   */\n      tag_125\n        /* \"#utility.yul\":1866:1871   */\n      dup2\n        /* \"#utility.yul\":1839:1872   */\n      tag_93\n      jump\t// in\n    tag_125:\n        /* \"#utility.yul\":1739:1878   */\n      swap3\n      swap2\n      pop\n      pop\n      jump\t// out\n        /* \"#utility.yul\":1884:2213   */\n    tag_44:\n        /* \"#utility.yul\":1943:1949   */\n      0x00\n        /* \"#utility.yul\":1992:1994   */\n      0x20\n        /* \"#utility.yul\":1980:1989   */\n      dup3\n        /* \"#utility.yul\":1971:1978   */\n      dup5\n        /* \"#utility.yul\":1967:1990   */\n      sub\n        /* \"#utility.yul\":1963:1995   */\n      slt\n        /* \"#utility.yul\":1960:2079   */\n      iszero\n      tag_127\n      jumpi\n        /* \"#utility.yul\":1998:2077   */\n      tag_128\n      tag_87\n      jump\t// in\n    tag_128:\n        /* \"#utility.yul\":1960:2079   */\n    tag_127:\n        /* \"#utility.yul\":2118:2119   */\n      0x00\n        /* \"#utility.yul\":2143:2196   */\n      tag_129\n        /* \"#utility.yul\":2188:2195   */\n      dup5\n        /* \"#utility.yul\":2179:2185   */\n      dup3\n        /* \"#utility.yul\":2168:2177   */\n      dup6\n        /* \"#utility.yul\":2164:2186   */\n      add\n        /* \"#utility.yul\":2143:2196   */\n      tag_94\n      jump\t// in\n    tag_129:\n        /* \"#utility.yul\":2133:2196   */\n      swap2\n      pop\n        /* \"#utility.yul\":2089:2206   */\n      pop\n        /* \"#utility.yul\":1884:2213   */\n      swap3\n      swap2\n      pop\n      pop\n      jump\t// out\n        /* \"#utility.yul\":2219:2399   */\n    tag_95:\n        /* \"#utility.yul\":2267:2344   */\n      0x4e487b7100000000000000000000000000000000000000000000000000000000\n        /* \"#utility.yul\":2264:2265   */\n      0x00\n        /* \"#utility.yul\":2257:2345   */\n      mstore\n        /* \"#utility.yul\":2364:2368   */\n      0x11\n        /* \"#utility.yul\":2361:2362   */\n      0x04\n        /* \"#utility.yul\":2354:2369   */\n      mstore\n        /* \"#utility.yul\":2388:2392   */\n      0x24\n        /* \"#utility.yul\":2385:2386   */\n      0x00\n        /* \"#utility.yul\":2378:2393   */\n      revert\n        /* \"#utility.yul\":2405:2596   */\n    tag_52:\n        /* \"#utility.yul\":2445:2448   */\n      0x00\n        /* \"#utility.yul\":2464:2484   */\n      tag_132\n        /* \"#utility.yul\":2482:2483   */\n      dup3\n        /* \"#utility.yul\":2464:2484   */\n      tag_84\n      jump\t// in\n    tag_132:\n        /* \"#utility.yul\":2459:2484   */\n      swap2\n      pop\n        /* \"#utility.yul\":2498:2518   */\n      tag_133\n        /* \"#utility.yul\":2516:2517   */\n      dup4\n        /* \"#utility.yul\":2498:2518   */\n      tag_84\n      jump\t// in\n    tag_133:\n        /* \"#utility.yul\":2493:2518   */\n      swap3\n      pop\n        /* \"#utility.yul\":2541:2542   */\n      dup3\n        /* \"#utility.yul\":2538:2539   */\n      dup3\n        /* \"#utility.yul\":2534:2543   */\n      add\n        /* \"#utility.yul\":2527:2543   */\n      swap1\n      pop\n        /* \"#utility.yul\":2562:2565   */\n      dup1\n        /* \"#utility.yul\":2559:2560   */\n      dup3\n        /* \"#utility.yul\":2556:2566   */\n      gt\n        /* \"#utility.yul\":2553:2589   */\n      iszero\n      tag_134\n      jumpi\n        /* \"#utility.yul\":2569:2587   */\n      tag_135\n      tag_95\n      jump\t// in\n    tag_135:\n        /* \"#utility.yul\":2553:2589   */\n    tag_134:\n        /* \"#utility.yul\":2405:2596   */\n      swap3\n      swap2\n      pop\n      pop\n      jump\t// out\n        /* \"#utility.yul\":2602:2796   */\n    tag_55:\n        /* \"#utility.yul\":2642:2646   */\n      0x00\n        /* \"#utility.yul\":2662:2682   */\n      tag_137\n        /* \"#utility.yul\":2680:2681   */\n      dup3\n        /* \"#utility.yul\":2662:2682   */\n      tag_84\n      jump\t// in\n    tag_137:\n        /* \"#utility.yul\":2657:2682   */\n      swap2\n      pop\n        /* \"#utility.yul\":2696:2716   */\n      tag_138\n        /* \"#utility.yul\":2714:2715   */\n      dup4\n        /* \"#utility.yul\":2696:2716   */\n      tag_84\n      jump\t// in\n    tag_138:\n        /* \"#utility.yul\":2691:2716   */\n      swap3\n      pop\n        /* \"#utility.yul\":2740:2741   */\n      dup3\n        /* \"#utility.yul\":2737:2738   */\n      dup3\n        /* \"#utility.yul\":2733:2742   */\n      sub\n        /* \"#utility.yul\":2725:2742   */\n      swap1\n      pop\n        /* \"#utility.yul\":2764:2765   */\n      dup2\n        /* \"#utility.yul\":2758:2762   */\n      dup2\n        /* \"#utility.yul\":2755:2766   */\n      gt\n        /* \"#utility.yul\":2752:2789   */\n      iszero\n      tag_139\n      jumpi\n        /* \"#utility.yul\":2769:2787   */\n      tag_140\n      tag_95\n      jump\t// in\n    tag_140:\n        /* \"#utility.yul\":2752:2789   */\n    tag_139:\n        /* \"#utility.yul\":2602:2796   */\n      swap3\n      swap2\n      pop\n      pop\n      jump\t// out\n        /* \"#utility.yul\":2802:3134   */\n    tag_57:\n        /* \"#utility.yul\":2923:2927   */\n      0x00\n        /* \"#utility.yul\":2961:2963   */\n      0x40\n        /* \"#utility.yul\":2950:2959   */\n      dup3\n        /* \"#utility.yul\":2946:2964   */\n      add\n        /* \"#utility.yul\":2938:2964   */\n      swap1\n      pop\n        /* \"#utility.yul\":2974:3045   */\n      tag_142\n        /* \"#utility.yul\":3042:3043   */\n      0x00\n        /* \"#utility.yul\":3031:3040   */\n      dup4\n        /* \"#utility.yul\":3027:3044   */\n      add\n        /* \"#utility.yul\":3018:3024   */\n      dup6\n        /* \"#utility.yul\":2974:3045   */\n      tag_85\n      jump\t// in\n    tag_142:\n        /* \"#utility.yul\":3055:3127   */\n      tag_143\n        /* \"#utility.yul\":3123:3125   */\n      0x20\n        /* \"#utility.yul\":3112:3121   */\n      dup4\n        /* \"#utility.yul\":3108:3126   */\n      add\n        /* \"#utility.yul\":3099:3105   */\n      dup5\n        /* \"#utility.yul\":3055:3127   */\n      tag_85\n      jump\t// in\n    tag_143:\n        /* \"#utility.yul\":2802:3134   */\n      swap4\n      swap3\n      pop\n      pop\n      pop\n      jump\t// out\n        /* \"#utility.yul\":3140:3287   */\n    tag_96:\n        /* \"#utility.yul\":3241:3252   */\n      0x00\n        /* \"#utility.yul\":3278:3281   */\n      dup2\n        /* \"#utility.yul\":3263:3281   */\n      swap1\n      pop\n        /* \"#utility.yul\":3140:3287   */\n      swap3\n      swap2\n      pop\n      pop\n      jump\t// out\n        /* \"#utility.yul\":3293:3407   */\n    tag_97:\n      pop\n      jump\t// out\n        /* \"#utility.yul\":3413:3811   */\n    tag_98:\n        /* \"#utility.yul\":3572:3575   */\n      0x00\n        /* \"#utility.yul\":3593:3676   */\n      tag_147\n        /* \"#utility.yul\":3674:3675   */\n      0x00\n        /* \"#utility.yul\":3669:3672   */\n      dup4\n        /* \"#utility.yul\":3593:3676   */\n      tag_96\n      jump\t// in\n    tag_147:\n        /* \"#utility.yul\":3586:3676   */\n      swap2\n      pop\n        /* \"#utility.yul\":3685:3778   */\n      tag_148\n        /* \"#utility.yul\":3774:3777   */\n      dup3\n        /* \"#utility.yul\":3685:3778   */\n      tag_97\n      jump\t// in\n    tag_148:\n        /* \"#utility.yul\":3803:3804   */\n      0x00\n        /* \"#utility.yul\":3798:3801   */\n      dup3\n        /* \"#utility.yul\":3794:3805   */\n      add\n        /* \"#utility.yul\":3787:3805   */\n      swap1\n      pop\n        /* \"#utility.yul\":3413:3811   */\n      swap2\n      swap1\n      pop\n      jump\t// out\n        /* \"#utility.yul\":3817:4196   */\n    tag_77:\n        /* \"#utility.yul\":4001:4004   */\n      0x00\n        /* \"#utility.yul\":4023:4170   */\n      tag_150\n        /* \"#utility.yul\":4166:4169   */\n      dup3\n        /* \"#utility.yul\":4023:4170   */\n      tag_98\n      jump\t// in\n    tag_150:\n        /* \"#utility.yul\":4016:4170   */\n      swap2\n      pop\n        /* \"#utility.yul\":4187:4190   */\n      dup2\n        /* \"#utility.yul\":4180:4190   */\n      swap1\n      pop\n        /* \"#utility.yul\":3817:4196   */\n      swap2\n      swap1\n      pop\n      jump\t// out\n        /* \"#utility.yul\":4202:4320   */\n    tag_99:\n        /* \"#utility.yul\":4289:4313   */\n      tag_152\n        /* \"#utility.yul\":4307:4312   */\n      dup2\n        /* \"#utility.yul\":4289:4313   */\n      tag_90\n      jump\t// in\n    tag_152:\n        /* \"#utility.yul\":4284:4287   */\n      dup3\n        /* \"#utility.yul\":4277:4314   */\n      mstore\n        /* \"#utility.yul\":4202:4320   */\n      pop\n      pop\n      jump\t// out\n        /* \"#utility.yul\":4326:4658   */\n    tag_83:\n        /* \"#utility.yul\":4447:4451   */\n      0x00\n        /* \"#utility.yul\":4485:4487   */\n      0x40\n        /* \"#utility.yul\":4474:4483   */\n      dup3\n        /* \"#utility.yul\":4470:4488   */\n      add\n        /* \"#utility.yul\":4462:4488   */\n      swap1\n      pop\n        /* \"#utility.yul\":4498:4569   */\n      tag_154\n        /* \"#utility.yul\":4566:4567   */\n      0x00\n        /* \"#utility.yul\":4555:4564   */\n      dup4\n        /* \"#utility.yul\":4551:4568   */\n      add\n        /* \"#utility.yul\":4542:4548   */\n      dup6\n        /* \"#utility.yul\":4498:4569   */\n      tag_99\n      jump\t// in\n    tag_154:\n        /* \"#utility.yul\":4579:4651   */\n      tag_155\n        /* \"#utility.yul\":4647:4649   */\n      0x20\n        /* \"#utility.yul\":4636:4645   */\n      dup4\n        /* \"#utility.yul\":4632:4650   */\n      add\n        /* \"#utility.yul\":4623:4629   */\n      dup5\n        /* \"#utility.yul\":4579:4651   */\n      tag_85\n      jump\t// in\n    tag_155:\n        /* \"#utility.yul\":4326:4658   */\n      swap4\n      swap3\n      pop\n      pop\n      pop\n      jump\t// out\n\n    auxdata: 0xa264697066735822122066ce9c0a4c69e032339ef5c76a51d2ee17388435c3c0973272ef2f0befccb71764736f6c634300081a0033\n}\n",
				"bytecode": {
					"linkReferences": {},
					"object": "60c060405234801561000f575f80fd5b50604051610a98380380610a988339818101604052810190610031919061007f565b81608081815250508060a0818152505050506100bd565b5f80fd5b5f819050919050565b61005e8161004c565b8114610068575f80fd5b50565b5f8151905061007981610055565b92915050565b5f806040838503121561009557610094610048565b5b5f6100a28582860161006b565b92505060206100b38582860161006b565b9150509250929050565b60805160a05161099e6100fa5f395f8181610380015281816104db015261050401525f81816101e50152818161021001526103f5015261099e5ff3fe60806040526004361061007e575f3560e01c8063869682591161004d578063869682591461012d578063c8ddec1b14610157578063e8b1298f14610181578063f061293a146101a95761008f565b80633d922f9014610093578063449533131461009d5780635f0073d0146100c75780636baf38ca146100f15761008f565b3661008f5761008d33346101d3565b005b5f80fd5b61009b610372565b005b3480156100a8575f80fd5b506100b161037e565b6040516100be9190610740565b60405180910390f35b3480156100d2575f80fd5b506100db6103a2565b6040516100e89190610740565b60405180910390f35b3480156100fc575f80fd5b50610117600480360381019061011291906107b7565b6103a7565b6040516101249190610740565b60405180910390f35b348015610138575f80fd5b506101416103ed565b60405161014e9190610740565b60405180910390f35b348015610162575f80fd5b5061016b6103f3565b6040516101789190610740565b60405180910390f35b34801561018c575f80fd5b506101a760048036038101906101a2919061080c565b610417565b005b3480156101b4575f80fd5b506101bd610671565b6040516101ca9190610740565b60405180910390f35b5f815f546101e19190610864565b90507f000000000000000000000000000000000000000000000000000000000000000081111561027657805f547f00000000000000000000000000000000000000000000000000000000000000006102399190610897565b6040517f6492294500000000000000000000000000000000000000000000000000000000815260040161026d9291906108ca565b60405180910390fd5b8160035f8573ffffffffffffffffffffffffffffffffffffffff1673ffffffffffffffffffffffffffffffffffffffff1681526020019081526020015f205f8282546102c29190610864565b92505081905550805f8190555060015f81548092919060010191905055508273ffffffffffffffffffffffffffffffffffffffff167f610daa02a124f86e54502578bf493432a3834b1138f1456e59e0e807357b63958360035f8773ffffffffffffffffffffffffffffffffffffffff1673ffffffffffffffffffffffffffffffffffffffff1681526020019081526020015f20546040516103659291906108ca565b60405180910390a2505050565b61037c33346101d3565b565b7f000000000000000000000000000000000000000000000000000000000000000081565b5f5481565b5f60035f8373ffffffffffffffffffffffffffffffffffffffff1673ffffffffffffffffffffffffffffffffffffffff1681526020019081526020015f20549050919050565b60015481565b7f000000000000000000000000000000000000000000000000000000000000000081565b805f8103610451576040517f85ea51af00000000000000000000000000000000000000000000000000000000815260040160405180910390fd5b5f60035f3373ffffffffffffffffffffffffffffffffffffffff1673ffffffffffffffffffffffffffffffffffffffff1681526020019081526020015f20549050808311156104d95780836040517f9d8b89ca0000000000000000000000000000000000000000000000000000000081526004016104d09291906108ca565b60405180910390fd5b7f000000000000000000000000000000000000000000000000000000000000000083111561056057827f00000000000000000000000000000000000000000000000000000000000000006040517fd021cb2f0000000000000000000000000000000000000000000000000000000081526004016105579291906108ca565b60405180910390fd5b828161056c9190610897565b60035f3373ffffffffffffffffffffffffffffffffffffffff1673ffffffffffffffffffffffffffffffffffffffff1681526020019081526020015f2081905550825f808282546105bd9190610897565b9250508190555060025f81548092919060010191905055506105df3384610677565b3373ffffffffffffffffffffffffffffffffffffffff167f513a4e63a7de56cc9b7c15d2467c0ad91c82df2b439cc2c4992f0b3b4b997d148460035f3373ffffffffffffffffffffffffffffffffffffffff1673ffffffffffffffffffffffffffffffffffffffff1681526020019081526020015f20546040516106649291906108ca565b60405180910390a2505050565b60025481565b5f8273ffffffffffffffffffffffffffffffffffffffff168260405161069c9061091e565b5f6040518083038185875af1925050503d805f81146106d6576040519150601f19603f3d011682016040523d82523d5f602084013e6106db565b606091505b50509050806107235782826040517fc66cee3800000000000000000000000000000000000000000000000000000000815260040161071a929190610941565b60405180910390fd5b505050565b5f819050919050565b61073a81610728565b82525050565b5f6020820190506107535f830184610731565b92915050565b5f80fd5b5f73ffffffffffffffffffffffffffffffffffffffff82169050919050565b5f6107868261075d565b9050919050565b6107968161077c565b81146107a0575f80fd5b50565b5f813590506107b18161078d565b92915050565b5f602082840312156107cc576107cb610759565b5b5f6107d9848285016107a3565b91505092915050565b6107eb81610728565b81146107f5575f80fd5b50565b5f81359050610806816107e2565b92915050565b5f6020828403121561082157610820610759565b5b5f61082e848285016107f8565b91505092915050565b7f4e487b71000000000000000000000000000000000000000000000000000000005f52601160045260245ffd5b5f61086e82610728565b915061087983610728565b925082820190508082111561089157610890610837565b5b92915050565b5f6108a182610728565b91506108ac83610728565b92508282039050818111156108c4576108c3610837565b5b92915050565b5f6040820190506108dd5f830185610731565b6108ea6020830184610731565b9392505050565b5f81905092915050565b50565b5f6109095f836108f1565b9150610914826108fb565b5f82019050919050565b5f610928826108fe565b9150819050919050565b61093b8161077c565b82525050565b5f6040820190506109545f830185610932565b6109616020830184610731565b939250505056fea264697066735822122066ce9c0a4c69e032339ef5c76a51d2ee17388435c3c0973272ef2f0befccb71764736f6c634300081a0033",
					"opcodes": "PUSH1 0xC0 PUSH1 0x40 MSTORE CALLVALUE DUP1 ISZERO PUSH2 0xF JUMPI PUSH0 DUP1 REVERT JUMPDEST POP PUSH1 0x40 MLOAD PUSH2 0xA98 CODESIZE SUB DUP1 PUSH2 0xA98 DUP4 CODECOPY DUP2 DUP2 ADD PUSH1 0x40 MSTORE DUP2 ADD SWAP1 PUSH2 0x31 SWAP2 SWAP1 PUSH2 0x7F JUMP JUMPDEST DUP2 PUSH1 0x80 DUP2 DUP2 MSTORE POP POP DUP1 PUSH1 0xA0 DUP2 DUP2 MSTORE POP POP POP POP PUSH2 0xBD JUMP JUMPDEST PUSH0 DUP1 REVERT JUMPDEST PUSH0 DUP2 SWAP1 POP SWAP2 SWAP1 POP JUMP JUMPDEST PUSH2 0x5E DUP2 PUSH2 0x4C JUMP JUMPDEST DUP2 EQ PUSH2 0x68 JUMPI PUSH0 DUP1 REVERT JUMPDEST POP JUMP JUMPDEST PUSH0 DUP2 MLOAD SWAP1 POP PUSH2 0x79 DUP2 PUSH2 0x55 JUMP JUMPDEST SWAP3 SWAP2 POP POP JUMP JUMPDEST PUSH0 DUP1 PUSH1 0x40 DUP4 DUP6 SUB SLT ISZERO PUSH2 0x95 JUMPI PUSH2 0x94 PUSH2 0x48 JUMP JUMPDEST JUMPDEST PUSH0 PUSH2 0xA2 DUP6 DUP3 DUP7 ADD PUSH2 0x6B JUMP JUMPDEST SWAP3 POP POP PUSH1 0x20 PUSH2 0xB3 DUP6 DUP3 DUP7 ADD PUSH2 0x6B JUMP JUMPDEST SWAP2 POP POP SWAP3 POP SWAP3 SWAP1 POP JUMP JUMPDEST PUSH1 0x80 MLOAD PUSH1 0xA0 MLOAD PUSH2 0x99E PUSH2 0xFA PUSH0 CODECOPY PUSH0 DUP2 DUP2 PUSH2 0x380 ADD MSTORE DUP2 DUP2 PUSH2 0x4DB ADD MSTORE PUSH2 0x504 ADD MSTORE PUSH0 DUP2 DUP2 PUSH2 0x1E5 ADD MSTORE DUP2 DUP2 PUSH2 0x210 ADD MSTORE PUSH2 0x3F5 ADD MSTORE PUSH2 0x99E PUSH0 RETURN INVALID PUSH1 0x80 PUSH1 0x40 MSTORE PUSH1 0x4 CALLDATASIZE LT PUSH2 0x7E JUMPI PUSH0 CALLDATALOAD PUSH1 0xE0 SHR DUP1 PUSH4 0x86968259 GT PUSH2 0x4D JUMPI DUP1 PUSH4 0x86968259 EQ PUSH2 0x12D JUMPI DUP1 PUSH4 0xC8DDEC1B EQ PUSH2 0x157 JUMPI DUP1 PUSH4 0xE8B1298F EQ PUSH2 0x181 JUMPI DUP1 PUSH4 0xF061293A EQ PUSH2 0x1A9 JUMPI PUSH2 0x8F JUMP JUMPDEST DUP1 PUSH4 0x3D922F90 EQ PUSH2 0x93 JUMPI DUP1 PUSH4 0x44953313 EQ PUSH2 0x9D JUMPI DUP1 PUSH4 0x5F0073D0 EQ PUSH2 0xC7 JUMPI DUP1 PUSH4 0x6BAF38CA EQ PUSH2 0xF1 JUMPI PUSH2 0x8F JUMP JUMPDEST CALLDATASIZE PUSH2 0x8F JUMPI PUSH2 0x8D CALLER CALLVALUE PUSH2 0x1D3 JUMP JUMPDEST STOP JUMPDEST PUSH0 DUP1 REVERT JUMPDEST PUSH2 0x9B PUSH2 0x372 JUMP JUMPDEST STOP JUMPDEST CALLVALUE DUP1 ISZERO PUSH2 0xA8 JUMPI PUSH0 DUP1 REVERT JUMPDEST POP PUSH2 0xB1 PUSH2 0x37E JUMP JUMPDEST PUSH1 0x40 MLOAD PUSH2 0xBE SWAP2 SWAP1 PUSH2 0x740 JUMP JUMPDEST PUSH1 0x40 MLOAD DUP1 SWAP2 SUB SWAP1 RETURN JUMPDEST CALLVALUE DUP1 ISZERO PUSH2 0xD2 JUMPI PUSH0 DUP1 REVERT JUMPDEST POP PUSH2 0xDB PUSH2 0x3A2 JUMP JUMPDEST PUSH1 0x40 MLOAD PUSH2 0xE8 SWAP2 SWAP1 PUSH2 0x740 JUMP JUMPDEST PUSH1 0x40 MLOAD DUP1 SWAP2 SUB SWAP1 RETURN JUMPDEST CALLVALUE DUP1 ISZERO PUSH2 0xFC JUMPI PUSH0 DUP1 REVERT JUMPDEST POP PUSH2 0x117 PUSH1 0x4 DUP1 CALLDATASIZE SUB DUP2 ADD SWAP1 PUSH2 0x112 SWAP2 SWAP1 PUSH2 0x7B7 JUMP JUMPDEST PUSH2 0x3A7 JUMP JUMPDEST PUSH1 0x40 MLOAD PUSH2 0x124 SWAP2 SWAP1 PUSH2 0x740 JUMP JUMPDEST PUSH1 0x40 MLOAD DUP1 SWAP2 SUB SWAP1 RETURN JUMPDEST CALLVALUE DUP1 ISZERO PUSH2 0x138 JUMPI PUSH0 DUP1 REVERT JUMPDEST POP PUSH2 0x141 PUSH2 0x3ED JUMP JUMPDEST PUSH1 0x40 MLOAD PUSH2 0x14E SWAP2 SWAP1 PUSH2 0x740 JUMP JUMPDEST PUSH1 0x40 MLOAD DUP1 SWAP2 SUB SWAP1 RETURN JUMPDEST CALLVALUE DUP1 ISZERO PUSH2 0x162 JUMPI PUSH0 DUP1 REVERT JUMPDEST POP PUSH2 0x16B PUSH2 0x3F3 JUMP JUMPDEST PUSH1 0x40 MLOAD PUSH2 0x178 SWAP2 SWAP1 PUSH2 0x740 JUMP JUMPDEST PUSH1 0x40 MLOAD DUP1 SWAP2 SUB SWAP1 RETURN JUMPDEST CALLVALUE DUP1 ISZERO PUSH2 0x18C JUMPI PUSH0 DUP1 REVERT JUMPDEST POP PUSH2 0x1A7 PUSH1 0x4 DUP1 CALLDATASIZE SUB DUP2 ADD SWAP1 PUSH2 0x1A2 SWAP2 SWAP1 PUSH2 0x80C JUMP JUMPDEST PUSH2 0x417 JUMP JUMPDEST STOP JUMPDEST CALLVALUE DUP1 ISZERO PUSH2 0x1B4 JUMPI PUSH0 DUP1 REVERT JUMPDEST POP PUSH2 0x1BD PUSH2 0x671 JUMP JUMPDEST PUSH1 0x40 MLOAD PUSH2 0x1CA SWAP2 SWAP1 PUSH2 0x740 JUMP JUMPDEST PUSH1 0x40 MLOAD DUP1 SWAP2 SUB SWAP1 RETURN JUMPDEST PUSH0 DUP2 PUSH0 SLOAD PUSH2 0x1E1 SWAP2 SWAP1 PUSH2 0x864 JUMP JUMPDEST SWAP1 POP PUSH32 0x0 DUP2 GT ISZERO PUSH2 0x276 JUMPI DUP1 PUSH0 SLOAD PUSH32 0x0 PUSH2 0x239 SWAP2 SWAP1 PUSH2 0x897 JUMP JUMPDEST PUSH1 0x40 MLOAD PUSH32 0x6492294500000000000000000000000000000000000000000000000000000000 DUP2 MSTORE PUSH1 0x4 ADD PUSH2 0x26D SWAP3 SWAP2 SWAP1 PUSH2 0x8CA JUMP JUMPDEST PUSH1 0x40 MLOAD DUP1 SWAP2 SUB SWAP1 REVERT JUMPDEST DUP2 PUSH1 0x3 PUSH0 DUP6 PUSH20 0xFFFFFFFFFFFFFFFFFFFFFFFFFFFFFFFFFFFFFFFF AND PUSH20 0xFFFFFFFFFFFFFFFFFFFFFFFFFFFFFFFFFFFFFFFF AND DUP2 MSTORE PUSH1 0x20 ADD SWAP1 DUP2 MSTORE PUSH1 0x20 ADD PUSH0 KECCAK256 PUSH0 DUP3 DUP3 SLOAD PUSH2 0x2C2 SWAP2 SWAP1 PUSH2 0x864 JUMP JUMPDEST SWAP3 POP POP DUP2 SWAP1 SSTORE POP DUP1 PUSH0 DUP2 SWAP1 SSTORE POP PUSH1 0x1 PUSH0 DUP2 SLOAD DUP1 SWAP3 SWAP2 SWAP1 PUSH1 0x1 ADD SWAP2 SWAP1 POP SSTORE POP DUP3 PUSH20 0xFFFFFFFFFFFFFFFFFFFFFFFFFFFFFFFFFFFFFFFF AND PUSH32 0x610DAA02A124F86E54502578BF493432A3834B1138F1456E59E0E807357B6395 DUP4 PUSH1 0x3 PUSH0 DUP8 PUSH20 0xFFFFFFFFFFFFFFFFFFFFFFFFFFFFFFFFFFFFFFFF AND PUSH20 0xFFFFFFFFFFFFFFFFFFFFFFFFFFFFFFFFFFFFFFFF AND DUP2 MSTORE PUSH1 0x20 ADD SWAP1 DUP2 MSTORE PUSH1 0x20 ADD PUSH0 KECCAK256 SLOAD PUSH1 0x40 MLOAD PUSH2 0x365 SWAP3 SWAP2 SWAP1 PUSH2 0x8CA JUMP JUMPDEST PUSH1 0x40 MLOAD DUP1 SWAP2 SUB SWAP1 LOG2 POP POP POP JUMP JUMPDEST PUSH2 0x37C CALLER CALLVALUE PUSH2 0x1D3 JUMP JUMPDEST JUMP JUMPDEST PUSH32 0x0 DUP2 JUMP JUMPDEST PUSH0 SLOAD DUP2 JUMP JUMPDEST PUSH0 PUSH1 0x3 PUSH0 DUP4 PUSH20 0xFFFFFFFFFFFFFFFFFFFFFFFFFFFFFFFFFFFFFFFF AND PUSH20 0xFFFFFFFFFFFFFFFFFFFFFFFFFFFFFFFFFFFFFFFF AND DUP2 MSTORE PUSH1 0x20 ADD SWAP1 DUP2 MSTORE PUSH1 0x20 ADD PUSH0 KECCAK256 SLOAD SWAP1 POP SWAP2 SWAP1 POP JUMP JUMPDEST PUSH1 0x1 SLOAD DUP2 JUMP JUMPDEST PUSH32 0x0 DUP2 JUMP JUMPDEST DUP1 PUSH0 DUP2 SUB PUSH2 0x451 JUMPI PUSH1 0x40 MLOAD PUSH32 0x85EA51AF00000000000000000000000000000000000000000000000000000000 DUP2 MSTORE PUSH1 0x4 ADD PUSH1 0x40 MLOAD DUP1 SWAP2 SUB SWAP1 REVERT JUMPDEST PUSH0 PUSH1 0x3 PUSH0 CALLER PUSH20 0xFFFFFFFFFFFFFFFFFFFFFFFFFFFFFFFFFFFFFFFF AND PUSH20 0xFFFFFFFFFFFFFFFFFFFFFFFFFFFFFFFFFFFFFFFF AND DUP2 MSTORE PUSH1 0x20 ADD SWAP1 DUP2 MSTORE PUSH1 0x20 ADD PUSH0 KECCAK256 SLOAD SWAP1 POP DUP1 DUP4 GT ISZERO PUSH2 0x4D9 JUMPI DUP1 DUP4 PUSH1 0x40 MLOAD PUSH32 0x9D8B89CA00000000000000000000000000000000000000000000000000000000 DUP2 MSTORE PUSH1 0x4 ADD PUSH2 0x4D0 SWAP3 SWAP2 SWAP1 PUSH2 0x8CA JUMP JUMPDEST PUSH1 0x40 MLOAD DUP1 SWAP2 SUB SWAP1 REVERT JUMPDEST PUSH32 0x0 DUP4 GT ISZERO PUSH2 0x560 JUMPI DUP3 PUSH32 0x0 PUSH1 0x40 MLOAD PUSH32 0xD021CB2F00000000000000000000000000000000000000000000000000000000 DUP2 MSTORE PUSH1 0x4 ADD PUSH2 0x557 SWAP3 SWAP2 SWAP1 PUSH2 0x8CA JUMP JUMPDEST PUSH1 0x40 MLOAD DUP1 SWAP2 SUB SWAP1 REVERT JUMPDEST DUP3 DUP2 PUSH2 0x56C SWAP2 SWAP1 PUSH2 0x897 JUMP JUMPDEST PUSH1 0x3 PUSH0 CALLER PUSH20 0xFFFFFFFFFFFFFFFFFFFFFFFFFFFFFFFFFFFFFFFF AND PUSH20 0xFFFFFFFFFFFFFFFFFFFFFFFFFFFFFFFFFFFFFFFF AND DUP2 MSTORE PUSH1 0x20 ADD SWAP1 DUP2 MSTORE PUSH1 0x20 ADD PUSH0 KECCAK256 DUP2 SWAP1 SSTORE POP DUP3 PUSH0 DUP1 DUP3 DUP3 SLOAD PUSH2 0x5BD SWAP2 SWAP1 PUSH2 0x897 JUMP JUMPDEST SWAP3 POP POP DUP2 SWAP1 SSTORE POP PUSH1 0x2 PUSH0 DUP2 SLOAD DUP1 SWAP3 SWAP2 SWAP1 PUSH1 0x1 ADD SWAP2 SWAP1 POP SSTORE POP PUSH2 0x5DF CALLER DUP5 PUSH2 0x677 JUMP JUMPDEST CALLER PUSH20 0xFFFFFFFFFFFFFFFFFFFFFFFFFFFFFFFFFFFFFFFF AND PUSH32 0x513A4E63A7DE56CC9B7C15D2467C0AD91C82DF2B439CC2C4992F0B3B4B997D14 DUP5 PUSH1 0x3 PUSH0 CALLER PUSH20 0xFFFFFFFFFFFFFFFFFFFFFFFFFFFFFFFFFFFFFFFF AND PUSH20 0xFFFFFFFFFFFFFFFFFFFFFFFFFFFFFFFFFFFFFFFF AND DUP2 MSTORE PUSH1 0x20 ADD SWAP1 DUP2 MSTORE PUSH1 0x20 ADD PUSH0 KECCAK256 SLOAD PUSH1 0x40 MLOAD PUSH2 0x664 SWAP3 SWAP2 SWAP1 PUSH2 0x8CA JUMP JUMPDEST PUSH1 0x40 MLOAD DUP1 SWAP2 SUB SWAP1 LOG2 POP POP POP JUMP JUMPDEST PUSH1 0x2 SLOAD DUP2 JUMP JUMPDEST PUSH0 DUP3 PUSH20 0xFFFFFFFFFFFFFFFFFFFFFFFFFFFFFFFFFFFFFFFF AND DUP3 PUSH1 0x40 MLOAD PUSH2 0x69C SWAP1 PUSH2 0x91E JUMP JUMPDEST PUSH0 PUSH1 0x40 MLOAD DUP1 DUP4 SUB DUP2 DUP6 DUP8 GAS CALL SWAP3 POP POP POP RETURNDATASIZE DUP1 PUSH0 DUP2 EQ PUSH2 0x6D6 JUMPI PUSH1 0x40 MLOAD SWAP2 POP PUSH1 0x1F NOT PUSH1 0x3F RETURNDATASIZE ADD AND DUP3 ADD PUSH1 0x40 MSTORE RETURNDATASIZE DUP3 MSTORE RETURNDATASIZE PUSH0 PUSH1 0x20 DUP5 ADD RETURNDATACOPY PUSH2 0x6DB JUMP JUMPDEST PUSH1 0x60 SWAP2 POP JUMPDEST POP POP SWAP1 POP DUP1 PUSH2 0x723 JUMPI DUP3 DUP3 PUSH1 0x40 MLOAD PUSH32 0xC66CEE3800000000000000000000000000000000000000000000000000000000 DUP2 MSTORE PUSH1 0x4 ADD PUSH2 0x71A SWAP3 SWAP2 SWAP1 PUSH2 0x941 JUMP JUMPDEST PUSH1 0x40 MLOAD DUP1 SWAP2 SUB SWAP1 REVERT JUMPDEST POP POP POP JUMP JUMPDEST PUSH0 DUP2 SWAP1 POP SWAP2 SWAP1 POP JUMP JUMPDEST PUSH2 0x73A DUP2 PUSH2 0x728 JUMP JUMPDEST DUP3 MSTORE POP POP JUMP JUMPDEST PUSH0 PUSH1 0x20 DUP3 ADD SWAP1 POP PUSH2 0x753 PUSH0 DUP4 ADD DUP5 PUSH2 0x731 JUMP JUMPDEST SWAP3 SWAP2 POP POP JUMP JUMPDEST PUSH0 DUP1 REVERT JUMPDEST PUSH0 PUSH20 0xFFFFFFFFFFFFFFFFFFFFFFFFFFFFFFFFFFFFFFFF DUP3 AND SWAP1 POP SWAP2 SWAP1 POP JUMP JUMPDEST PUSH0 PUSH2 0x786 DUP3 PUSH2 0x75D JUMP JUMPDEST SWAP1 POP SWAP2 SWAP1 POP JUMP JUMPDEST PUSH2 0x796 DUP2 PUSH2 0x77C JUMP JUMPDEST DUP2 EQ PUSH2 0x7A0 JUMPI PUSH0 DUP1 REVERT JUMPDEST POP JUMP JUMPDEST PUSH0 DUP2 CALLDATALOAD SWAP1 POP PUSH2 0x7B1 DUP2 PUSH2 0x78D JUMP JUMPDEST SWAP3 SWAP2 POP POP JUMP JUMPDEST PUSH0 PUSH1 0x20 DUP3 DUP5 SUB SLT ISZERO PUSH2 0x7CC JUMPI PUSH2 0x7CB PUSH2 0x759 JUMP JUMPDEST JUMPDEST PUSH0 PUSH2 0x7D9 DUP5 DUP3 DUP6 ADD PUSH2 0x7A3 JUMP JUMPDEST SWAP2 POP POP SWAP3 SWAP2 POP POP JUMP JUMPDEST PUSH2 0x7EB DUP2 PUSH2 0x728 JUMP JUMPDEST DUP2 EQ PUSH2 0x7F5 JUMPI PUSH0 DUP1 REVERT JUMPDEST POP JUMP JUMPDEST PUSH0 DUP2 CALLDATALOAD SWAP1 POP PUSH2 0x806 DUP2 PUSH2 0x7E2 JUMP JUMPDEST SWAP3 SWAP2 POP POP JUMP JUMPDEST PUSH0 PUSH1 0x20 DUP3 DUP5 SUB SLT ISZERO PUSH2 0x821 JUMPI PUSH2 0x820 PUSH2 0x759 JUMP JUMPDEST JUMPDEST PUSH0 PUSH2 0x82E DUP5 DUP3 DUP6 ADD PUSH2 0x7F8 JUMP JUMPDEST SWAP2 POP POP SWAP3 SWAP2 POP POP JUMP JUMPDEST PUSH32 0x4E487B7100000000000000000000000000000000000000000000000000000000 PUSH0 MSTORE PUSH1 0x11 PUSH1 0x4 MSTORE PUSH1 0x24 PUSH0 REVERT JUMPDEST PUSH0 PUSH2 0x86E DUP3 PUSH2 0x728 JUMP JUMPDEST SWAP2 POP PUSH2 0x879 DUP4 PUSH2 0x728 JUMP JUMPDEST SWAP3 POP DUP3 DUP3 ADD SWAP1 POP DUP1 DUP3 GT ISZERO PUSH2 0x891 JUMPI PUSH2 0x890 PUSH2 0x837 JUMP JUMPDEST JUMPDEST SWAP3 SWAP2 POP POP JUMP JUMPDEST PUSH0 PUSH2 0x8A1 DUP3 PUSH2 0x728 JUMP JUMPDEST SWAP2 POP PUSH2 0x8AC DUP4 PUSH2 0x728 JUMP JUMPDEST SWAP3 POP DUP3 DUP3 SUB SWAP1 POP DUP2 DUP2 GT ISZERO PUSH2 0x8C4 JUMPI PUSH2 0x8C3 PUSH2 0x837 JUMP JUMPDEST JUMPDEST SWAP3 SWAP2 POP POP JUMP JUMPDEST PUSH0 PUSH1 0x40 DUP3 ADD SWAP1 POP PUSH2 0x8DD PUSH0 DUP4 ADD DUP6 PUSH2 0x731 JUMP JUMPDEST PUSH2 0x8EA PUSH1 0x20 DUP4 ADD DUP5 PUSH2 0x731 JUMP JUMPDEST SWAP4 SWAP3 POP POP POP JUMP JUMPDEST PUSH0 DUP2 SWAP1 POP SWAP3 SWAP2 POP POP JUMP JUMPDEST POP JUMP JUMPDEST PUSH0 PUSH2 0x909 PUSH0 DUP4 PUSH2 0x8F1 JUMP JUMPDEST SWAP2 POP PUSH2 0x914 DUP3 PUSH2 0x8FB JUMP JUMPDEST PUSH0 DUP3 ADD SWAP1 POP SWAP2 SWAP1 POP JUMP JUMPDEST PUSH0 PUSH2 0x928 DUP3 PUSH2 0x8FE JUMP JUMPDEST SWAP2 POP DUP2 SWAP1 POP SWAP2 SWAP1 POP JUMP JUMPDEST PUSH2 0x93B DUP2 PUSH2 0x77C JUMP JUMPDEST DUP3 MSTORE POP POP JUMP JUMPDEST PUSH0 PUSH1 0x40 DUP3 ADD SWAP1 POP PUSH2 0x954 PUSH0 DUP4 ADD DUP6 PUSH2 0x932 JUMP JUMPDEST PUSH2 0x961 PUSH1 0x20 DUP4 ADD DUP5 PUSH2 0x731 JUMP JUMPDEST SWAP4 SWAP3 POP POP POP JUMP INVALID LOG2 PUSH5 0x6970667358 0x22 SLT KECCAK256 PUSH7 0xCE9C0A4C69E032 CALLER SWAP15 CREATE2 0xC7 PUSH11 0x51D2EE17388435C3C09732 PUSH19 0xEF2F0BEFCCB71764736F6C634300081A003300 "
				},
				"gasEstimates": {
					"creation": {
						"codeDepositCost": "492400",
						"executionCost": "infinite",
						"totalCost": "infinite"
					},
					"external": {
						"contadorDepositos()": "2425",
						"contadorRetiros()": "2491",
						"depositar()": "infinite",
						"limiteBanco()": "infinite",
						"limiteRetiro()": "infinite",
						"retirar(uint256)": "infinite",
						"saldoDe(address)": "2896",
						"totalDepositado()": "2469"
					},
					"internal": {
						"_depositar(address,uint256)": "infinite",
						"_transferenciaSegura(address,uint256)": "infinite"
					}
				},
				"methodIdentifiers": {
					"contadorDepositos()": "86968259",
					"contadorRetiros()": "f061293a",
					"depositar()": "3d922f90",
					"limiteBanco()": "c8ddec1b",
					"limiteRetiro()": "44953313",
					"retirar(uint256)": "e8b1298f",
					"saldoDe(address)": "6baf38ca",
					"totalDepositado()": "5f0073d0"
				}
			},
			"storageLayout": {
				"storage": [
					{
						"astId": 42,
						"contract": "contracts/kipu-bank.sol:KipuBank",
						"label": "totalDepositado",
						"offset": 0,
						"slot": "0",
						"type": "t_uint256"
					},
					{
						"astId": 45,
						"contract": "contracts/kipu-bank.sol:KipuBank",
						"label": "contadorDepositos",
						"offset": 0,
						"slot": "1",
						"type": "t_uint256"
					},
					{
						"astId": 48,
						"contract": "contracts/kipu-bank.sol:KipuBank",
						"label": "contadorRetiros",
						"offset": 0,
						"slot": "2",
						"type": "t_uint256"
					},
					{
						"astId": 53,
						"contract": "contracts/kipu-bank.sol:KipuBank",
						"label": "saldos",
						"offset": 0,
						"slot": "3",
						"type": "t_mapping(t_address,t_uint256)"
					}
				],
				"types": {
					"t_address": {
						"encoding": "inplace",
						"label": "address",
						"numberOfBytes": "20"
					},
					"t_mapping(t_address,t_uint256)": {
						"encoding": "mapping",
						"key": "t_address",
						"label": "mapping(address => uint256)",
						"numberOfBytes": "32",
						"value": "t_uint256"
					},
					"t_uint256": {
						"encoding": "inplace",
						"label": "uint256",
						"numberOfBytes": "32"
					}
				}
			},
			"userdoc": {
				"errors": {
					"LimiteBancoExcedido(uint256,uint256)": [
						{
							"notice": "Se lanza cuando un depósito supera el límite global del banco"
						}
					],
					"MontoCero()": [
						{
							"notice": "Se lanza cuando se intenta depositar o retirar 0"
						}
					],
					"RetiroExcedeLimite(uint256,uint256)": [
						{
							"notice": "Se lanza cuando el monto a retirar supera el límite por transacción"
						}
					],
					"SaldoInsuficiente(uint256,uint256)": [
						{
							"notice": "Se lanza cuando el usuario intenta retirar más de lo que tiene"
						}
					],
					"TransferenciaFallida(address,uint256)": [
						{
							"notice": "Se lanza cuando falla la transferencia nativa de ETH"
						}
					]
				},
				"events": {
					"Deposito(address,uint256,uint256)": {
						"notice": "Evento emitido cuando un usuario deposita ETH"
					},
					"Retiro(address,uint256,uint256)": {
						"notice": "Evento emitido cuando un usuario retira ETH"
					}
				},
				"kind": "user",
				"methods": {
					"contadorDepositos()": {
						"notice": "Contador de depósitos realizados"
					},
					"contadorRetiros()": {
						"notice": "Contador de retiros realizados"
					},
					"depositar()": {
						"notice": "Deposita ETH en la bóveda del usuario"
					},
					"limiteBanco()": {
						"notice": "Límite máximo de ETH que puede tener el banco en total"
					},
					"limiteRetiro()": {
						"notice": "Límite máximo de ETH que un usuario puede retirar en una sola transacción"
					},
					"retirar(uint256)": {
						"notice": "Retira ETH de la bóveda del usuario"
					},
					"saldoDe(address)": {
						"notice": "Consulta el saldo de un usuario"
					},
					"totalDepositado()": {
						"notice": "Total de ETH actualmente depositado en el banco"
					}
				},
				"notice": "Contrato seguro para depositar y retirar ETH ",
				"version": 1
			}
		}
	}
}